:020000040800F2
:1000000000800120499D0308C9180008D71800087E
:10001000DD180008E3180008E918000800000000D7
:10002000000000000000000000000000EF180008C1
:10003000FD180008000000000B190008191900083D
:10004000999D0308999D0308999D0308999D0308AC
:10005000999D0308999D0308251900083319000884
:10006000999D0308999D030841190008999D03086B
:10007000999D0308999D0308999D0308999D03087C
:10008000999D0308999D0308999D030800000000AD
:100090000000000000000000000000004F190008F0
:1000A000999D030865190008999D0308999D030807
:1000B000999D0308999D0308999D0308999D03083C
:1000C000999D0308999D0308999D0308999D03082C
:1000D000999D0308999D0308791900080000000004
:1000E0008D190008999D0308999D030800000000E0
:1000F000000000000000000000000000999D0308BF
:1001000000000000999D0308999D0308999D03082C
:1001100000000000000000000000000000000000DF
:10012000999D0308999D0308999D0308999D0308CB
:10013000999D03080000000000000000000000007E
:10014000000000000000000000000000999D03086E
:10015000999D0308999D0308999D0308999D03089B
:10016000999D0308999D030800000000000000000D
:10017000000000000000000000000000000000007F
:1001800000000000999D030800000000000000002E
:04019000999D03082A
:1001A00010B5054C237833B9044B13B10448AFF3B1
:1001B00000800123237010BDB00800200000000063
:1001C00068BF030808B5034B1BB103490348AFF3ED
:1001D000008008BD00000000B408002068BF0308CC
:1001E000F0C7030800000020B0080020B00800207D
:1001F000E41D0020034613F8012B002AFBD1181A36
:1002000001387047000000000000000000000000FE
:1002100001F0FF01102A2BDB10F0070F08D010F8B7
:10022000013B013A8B422DD010F0070F42B3F6D1BB
:10023000F0B441EA012141EA014122F007047FF0D4
:1002400000070023F0E80256083C85EA010586EA2B
:10025000010685FA47F5A3FA87F586FA47F6A5FA67
:1002600087F68EB9EED1F0BC01F0FF0102F0070273
:1002700032B110F8013B013A83EA010313B1F8D11E
:100280000020704701387047002D06BF35460338FF
:10029000073815F0010F07D1013015F4807F02BF38
:1002A000013015F4C03F0130F0BC0138704700BF89
:1002B00081F0004102E000BF83F0004330B54FEA17
:1002C00041044FEA430594EA050F08BF90EA020F84
:1002D0001FBF54EA000C55EA020C7FEA645C7FEA17
:1002E000655C00F0E2804FEA5454D4EB5555B8BF3A
:1002F0006D420CDD2C4480EA020281EA030382EAAB
:10030000000083EA010180EA020281EA0303362D3C
:1003100088BF30BD11F0004F4FEA01314FF4801C0F
:100320004CEA113102D0404261EB410113F0004F21
:100330004FEA03334CEA133302D0524263EB4303D8
:1003400094EA050F00F0A780A4F10104D5F1200E76
:100350000DDB02FA0EFC22FA05F2801841F10001D1
:1003600003FA0EF2801843FA05F359410EE0A5F1A5
:1003700020050EF1200E012A03FA0EFC28BF4CF0D6
:10038000020C43FA05F3C01851EBE37101F000458C
:1003900007D54FF0000EDCF1000C7EEB00006EEB99
:1003A0000101B1F5801F1BD3B1F5001F0CD3490823
:1003B0005FEA30004FEA3C0C04F101044FEA44527A
:1003C00012F5800F80F09A80BCF1004F08BF5FEA01
:1003D000500C50F1000041EB045141EA050130BDE1
:1003E0005FEA4C0C404141EB010111F4801FA4F184
:1003F0000104E9D191F0000F04BF01460020B1FAD9
:1004000081F308BF2033A3F10B03B3F120020CDA10
:100410000C3208DD02F1140CC2F10C0201FA0CF0EE
:1004200021FA02F10CE002F11402D8BFC2F1200C53
:1004300001FA02F120FA0CFCDCBF41EA0C01904009
:10044000E41AA2BF01EB0451294330BD6FEA040452
:100450001F3C1CDA0C340EDC04F11404C4F120023D
:1004600020FA04F001FA02F340EA030021FA04F34F
:1004700045EA030130BDC4F10C04C4F1200220FAA6
:1004800002F001FA04F340EA0300294630BD21FAE4
:1004900004F0294630BD94F0000F83F4801306BFAA
:1004A00081F480110134013D4EE77FEA645C18BF9E
:1004B0007FEA655C29D094EA050F08BF90EA020F35
:1004C00005D054EA000C04BF1946104630BD91EA2D
:1004D000030F1EBF0021002030BD5FEA545C05D130
:1004E0004000494128BF41F0004130BD14F580046F
:1004F0003CBF01F5801130BD01F0004545F0FE41E3
:1005000041F470014FF0000030BD7FEA645C1ABF17
:10051000194610467FEA655C1CBF0B46024650EA4E
:10052000013406BF52EA033591EA030F41F400217A
:1005300030BD00BF90F0000F04BF0021704730B500
:100540004FF4806404F132044FF000054FF00001D5
:1005500050E700BF90F0000F04BF0021704730B596
:100560004FF4806404F1320410F0004548BF40426B
:100570004FF000013EE700BF42004FEAE2014FEAC0
:1005800031014FEA02701FBF12F07F4393F07F4F9B
:1005900081F06051704792F0000F14BF93F07F4FCD
:1005A000704730B54FF4607401F0004521F0004110
:1005B00020E700BF50EA010208BF704730B54FF096
:1005C00000050AE050EA010208BF704730B511F09B
:1005D000004502D5404261EB41014FF4806404F1D3
:1005E00032045FEA915C3FF4DCAE4FF003025FEA55
:1005F000DC0C18BF03325FEADC0C18BF033202EBDD
:10060000DC02C2F1200300FA03FC20FA02F001FA36
:1006100003FE40EA0E0021FA02F11444C1E600BFD5
:1006200070B54FF0FF0C4CF4E06C1CEA11541DBF88
:100630001CEA135594EA0C0F95EA0C0F00F0DEF853
:100640002C4481EA030621EA4C5123EA4C5350EA38
:10065000013518BF52EA033541F4801143F4801389
:1006600038D0A0FB02CE4FF00005E1FB02E506F01A
:100670000042E0FB03E54FF00006E1FB03569CF06F
:10068000000F18BF4EF0010EA4F1FF04B6F5007F75
:1006900064F5407404D25FEA4E0E6D4146EB0606E7
:1006A00042EAC62141EA55514FEAC52040EA5E5070
:1006B0004FEACE2EB4F1FD0C88BFBCF5E06F1ED81A
:1006C000BEF1004F08BF5FEA500E50F1000041EB51
:1006D000045170BD06F0004646EA010140EA0200FE
:1006E00081EA0301B4EB5C04C2BFD4EB0C0541EA20
:1006F000045170BD41F480114FF0000E013C00F335
:10070000AB8014F1360FDEBF002001F0004170BD58
:10071000C4F10004203C35DA0C341BDC04F1140471
:10072000C4F1200500FA05F320FA04F001FA05F2FD
:1007300040EA020001F0004221F0004110EBD370CA
:1007400021FA04F642EB06015EEA430E08BF20EAF6
:10075000D37070BDC4F10C04C4F1200500FA04F399
:1007600020FA05F001FA04F240EA020001F000412B
:1007700010EBD37041F100015EEA430E08BF20EA9E
:10078000D37070BDC4F1200500FA05F24EEA020EE6
:1007900020FA04F301FA05F243EA020321FA04F015
:1007A00001F0004121FA04F220EA020000EBD370CC
:1007B0005EEA430E08BF20EAD37070BD94F0000FCC
:1007C0000FD101F00046400041EB010111F4801F00
:1007D00008BF013CF7D041EA060195F0000F18BFB1
:1007E000704703F00046520043EB030313F4801FED
:1007F00008BF013DF7D043EA0603704794EA0C0FA7
:100800000CEA135518BF95EA0C0F0CD050EA4106BC
:1008100018BF52EA4306D1D181EA030101F0004139
:100820004FF0000070BD50EA410606BF1046194661
:1008300052EA430619D094EA0C0F02D150EA01366D
:1008400013D195EA0C0F05D152EA03361CBF1046AE
:1008500019460AD181EA030101F0004141F0FE414D
:1008600041F470014FF0000070BD41F0FE4141F4D1
:10087000780170BD70B54FF0FF0C4CF4E06C1CEAD1
:1008800011541DBF1CEA135594EA0C0F95EA0C0F86
:1008900000F0A7F8A4EB050481EA030E52EA033541
:1008A0004FEA013100F088804FEA03334FF0805562
:1008B00045EA131343EA12634FEA022245EA11158F
:1008C00045EA10654FEA00260EF000419D4208BF40
:1008D000964244F1FD0404F5407402D25B084FEAED
:1008E0003202B61A65EB03055B084FEA32024FF499
:1008F00080104FF4002CB6EB020E75EB030E22BFF6
:10090000B61A754640EA0C005B084FEA3202B6EBB5
:10091000020E75EB030E22BFB61A754640EA5C0064
:100920005B084FEA3202B6EB020E75EB030E22BFF4
:10093000B61A754640EA9C005B084FEA3202B6EBF5
:10094000020E75EB030E22BFB61A754640EADC00B4
:1009500055EA060E18D04FEA051545EA16754FEA16
:1009600006164FEAC30343EA52734FEAC2025FEA34
:100970001C1CC0D111F4801F0BD141EA00014FF0C3
:1009800000004FF0004CB6E711F4801F04BF014394
:100990000020B4F1FD0C88BFBCF5E06F3FF6AFAEB0
:1009A000B5EB030C04BFB6EB020C5FEA500C50F140
:1009B000000041EB045170BD0EF0004E4EEA1131C3
:1009C00014EB5C04C2BFD4EB0C0541EA045170BDCA
:1009D00041F480114FF0000E013C90E645EA060E0E
:1009E0008DE60CEA135594EA0C0F08BF95EA0C0F3C
:1009F0003FF43BAF94EA0C0F0AD150EA01347FF484
:100A000034AF95EA0C0F7FF425AF104619462CE75A
:100A100095EA0C0F06D152EA03353FF4FDAE1046BD
:100A2000194622E750EA410618BF52EA43067FF40E
:100A3000C5AE50EA41047FF40DAF52EA43057FF49E
:100A4000EBAE12E74FF0FF3C06E000BF4FF0010CA9
:100A500002E000BF4FF0010C4DF804CD4FEA410C0D
:100A60007FEA6C5C4FEA430C18BF7FEA6C5C1BD0DA
:100A700001B050EA410C0CBF52EA430C91EA030F5B
:100A800002BF90EA020F0020704710F1000F91EAB8
:100A9000030F58BF994208BF90422CBFD8176FEA86
:100AA000E37040F0010070474FEA410C7FEA6C5C54
:100AB00002D150EA013C07D14FEA430C7FEA6C5C5B
:100AC000D6D152EA033CD3D05DF8040B704700BF87
:100AD0008446104662468C461946634600E000BFD5
:100AE00001B5FFF7B7FF002848BF10F1000F01BDA7
:100AF0004DF808EDFFF7F4FF0CBF012000205DF872
:100B000008FB00BF4DF808EDFFF7EAFF34BF0120F6
:100B100000205DF808FB00BF4DF808EDFFF7E0FF8F
:100B200094BF012000205DF808FB00BF4DF808EDE0
:100B3000FFF7CEFF94BF012000205DF808FB00BF47
:100B40004DF808EDFFF7C4FF34BF012000205DF829
:100B500008FB00BF4FEA410C7FEA6C5C02D150EA0F
:100B6000013C0AD14FEA430C7FEA6C5C02D152EAA5
:100B7000033C02D14FF0000070474FF00100704776
:100B80004FEA410212F5001215D211D56FF47873B5
:100B9000B3EB625212D94FEAC12343F0004343EA58
:100BA000505311F0004F23FA02F018BF4042704733
:100BB0004FF00000704750EA013005D111F00040BD
:100BC00008BF6FF0004070474FF00000704700BF53
:100BD0004A0011D212F5001211D20DD56FF47873BC
:100BE000B3EB62520ED44FEAC12343F0004343EA11
:100BF000505323FA02F070474FF00000704750EA5C
:100C0000013002D14FF0FF3070474FF000007047C5
:100C10004FEA4102B2F1E04324BFB3F5001CDCF11E
:100C2000FE5C0DD901F0004C4FEAC0024CEA507056
:100C3000B2F1004F40EB830008BF20F00100704785
:100C400011F0804F21D113F13872BCBF01F0004088
:100C5000704741F480114FEA5252C2F11802C2F1BA
:100C6000200C10FA0CF320FA02F018BF40F001003B
:100C70004FEAC1234FEAD32303FA0CFC40EA0C00ED
:100C800023FA02F34FEA4303CCE77FEA625307D12A
:100C900050EA01331EBF4FF0FE4040F44000704761
:100CA00001F0004040F0FE4040F40000704700BFFB
:100CB00053B94AB9002908BF00281CBF4FF0FF31C3
:100CC0004FF0FF3000F07AB9ADF1080C6DE904CEB9
:100CD00000F006F8DDF804E0DDE9022304B0704717
:100CE0002DE9F0478C460D460446089E002B51D155
:100CF0008A4217466DD9B2FA82FEBEF1000F0BD0C0
:100D0000CEF1200C01FA0EF520FA0CFC02FA0EF7D7
:100D10004CEA050C00FA0EF44FEA174A250CBCFB0E
:100D2000FAF81FFA87F90AFB18CC45EA0C4508FBCC
:100D300009F3AB420AD9ED1908F1FF3280F02381A3
:100D4000AB4240F22081A8F102083D44ED1AA4B262
:100D5000B5FBFAF00AFB105544EA054400FB09F91B
:100D6000A14509D9E41900F1FF3380F00A81A145BA
:100D700040F2078102383C44A4EB090440EA0840F1
:100D80000021002E61D024FA0EF400233460736039
:100D9000BDE8F0878B4207D9002E54D0002186E8A9
:100DA00021000846BDE8F087B3FA83F1002940F03E
:100DB0008E80AB4202D3824200F2FA80841A65EB45
:100DC00003050120AC46002E3FD086E81010BDE898
:100DD000F08712B90127B7FBF2F7B7FA87FEBEF129
:100DE000000F34D1EB1B3A0C1FFA87FC0121B3FB37
:100DF000F2F8250C02FB183345EA03450CFB08F317
:100E0000AB4207D9ED1908F1FF3002D2AB4200F234
:100E1000D1808046ED1AA3B2B5FBF2F002FB10556B
:100E200043EA05440CFB00FCA44507D9E41900F192
:100E3000FF3302D2A44500F2B8801846A4EB0C049C
:100E400040EA08409DE731463046BDE8F087CEF1E4
:100E5000200405FA0EF307FA0EF720FA04F83A0C0C
:100E600025FA04F448EA0308B4FBF2F14FEA184506
:100E700002FB11441FFA87FC45EA044501FB0CF311
:100E8000AB4200FA0EF409D9ED1901F1FF3080F000
:100E90008A80AB4240F2878002393D44EB1A1FFA48
:100EA00088F5B3FBF2F002FB103345EA034500FB83
:100EB0000CF3AB4207D9ED1900F1FF386FD2AB420A
:100EC0006DD902383D44EB1A40EA01418FE7C1F188
:100ED000200722FA07F88B4005FA01F448EA0303D9
:100EE00020FA07FE4FEA134CFD404EEA040EB5FB14
:100EF000FCF94FEA1E440CFB19551FFA83F844EA2B
:100F0000054509FB08F4AC4202FA01F200FA01FAC5
:100F100008D9ED1809F1FF3043D2AC4241D9A9F10B
:100F200002091D442D1B1FFA8EFEB5FBFCF00CFBC5
:100F300010554EEA054400FB08F8A04507D9E4180F
:100F400000F1FF3529D2A04527D902381C4440EAD8
:100F50000940A4EB0804A0FB02894C45C6464D4657
:100F600015D312D056B1BAEB0E0364EB050404FAA4
:100F700007F7CB401F43CC40376074600021BDE8C9
:100F8000F0871846F8E69046E0E6C245EAD2B8EBAC
:100F9000020E69EB03050138E4E72846D7E740462F
:100FA00091E78146BEE7014678E702383C4445E7D1
:100FB000084608E7A8F102083D442BE7704700BF48
:100FC00080B58AB000AF07F1140300221A605A609E
:100FD0009A60DA601A6100233B616C4A6B4B1B6BB1
:100FE00043F004031363694B1B6B03F004033B6181
:100FF0003B690023FB60654A644B1B6B43F0800335
:101000001363624B1B6B03F08003FB60FB680023E0
:10101000BB605E4A5D4B1B6B43F0010313635B4B8C
:101020001B6B03F00103BB60BB6800237B60574A66
:10103000564B1B6B43F002031363544B1B6B03F0C3
:1010400002037B607B6800233B60504A4F4B1B6B65
:1010500043F0080313634D4B1B6B03F008033B6025
:101060003B684DF67D737B610323BB610023FB610D
:1010700007F114031946464820F0E4FD03237B6181
:101080000323BB610023FB6107F1140319464148A8
:1010900020F0D8FD02237B613F4BBB610123FB6144
:1010A00007F1140319463A4820F0CCFD49F6D36302
:1010B0007B610323BB610023FB6107F11403194625
:1010C000364820F0BFFD40F231437B61344BBB61B9
:1010D0000023FB6107F114031946324820F0B2FDEA
:1010E0004FF2C6037B610323BB610023FB6107F161
:1010F000140319462B4820F0A5FD80237B61284B63
:10110000BB610023FB6107F114031946204820F05E
:1011100099FD4FF480737B610023BB610223FB6167
:1011200007F1140319461D4820F08CFD04237B6150
:101130000323BB610023FB6107F1140319461A481E
:1011400020F080FD0022002106201DF03AFA062042
:101150001DF053FA0022002107201DF032FA07206B
:101160001DF04BFA002200210A201DF02AFA0A2065
:101170001DF043FA0022002117201DF022FA17204B
:101180001DF03BFA00BF2837BD4680BD0038024045
:1011900000080240001C0240000021100000024034
:1011A0000000111000040240000C024080B582B023
:1011B00000AF786039607B68012B03D105482BF0C4
:1011C00025F802E003482BF083F800BF0837BD463E
:1011D00080BD00BF941A0020B0B586B006AF0022D3
:1011E00019491A4828F01FFF00221949174829F009
:1011F0001FF8174B9B781D46154B5B781A46144B0E
:10120000DB781946104B1B7818460F4B5B781C4651
:101210000D4B9B78049303940290019100922B460E
:101220000C4A4FF480610C4839F0F0F80A48FEF798
:10123000E1FF03469AB241F288330749074832F08A
:10124000D8FD00BFBD46B0BD8C100020201A002084
:10125000E811002088BF030820160020941D0020FC
:1012600098B500AF074A084B144607CB2060616071
:10127000A2600121012038F0C7FD024838F0A2FD2C
:1012800000BF98BD20160020B0BF030880B483B013
:1012900000AF0346FB80FB88B3F5005F02D1044B2F
:1012A00001221A7000BF0C37BD465DF8047B704701
:1012B000CC08002080B582B000AF78607B681B68E6
:1012C000054A934203D12021044820F052FF00BF79
:1012D0000837BD4680BD00BF00000140000002404D
:1012E000F0B583B000AF1CF093FD00F0DFF9FFF71D
:1012F00067FE00F04BFE00F06DFA34F063FD00F085
:1013000059FA36F07BFBB34AB34B10461946862395
:101310001A4639F039F8AF48FEF76CFF03469AB227
:1013200041F28833AB49AD4832F063FDA94BAC4A7A
:1013300014469E4604F1200C754626460FCE2860C2
:101340006960AA60EB6010340EF1100E6445F3D1B1
:101350007246234603CB106051601B8813819D4861
:10136000FEF748FF03469AB241F2883399499B48F9
:1013700032F03FFD00237B6012E0012220219948DA
:1013800020F0DEFE1E201CF02FFE002220219548BA
:1013900020F0D6FE1E201CF027FE7B6801337B6008
:1013A0007B68132BE9DD38F06FFD32201CF01CFE4A
:1013B0000021002038F028FD8B4838F003FD012182
:1013C000002038F021FD894838F0FCFC012107207D
:1013D00038F01AFD864838F0F5FC4FF4FA701CF02E
:1013E00003FE84482AF012FF7A4A834B15461C46B6
:1013F0000FCC28606960AA60EB6023882B82754857
:10140000FEF7F8FE03469AB241F2883371497348F9
:1014100032F0EFFC002038F0AFFD012038F0ACFDD9
:10142000022038F0A9FD002038F016FE012038F027
:1014300013FE022038F010FE704A714B15461C4610
:101440000FCC28606960AA60EB6007CC28616961F5
:10145000AA61604A6B4B15461C460FCC2860696038
:10146000AA60EB6020682861A388AB825948FEF728
:10147000C1FE03469AB241F288335649574832F0CA
:10148000B8FC614835F04DFF604B00221A605F4B9D
:101490001B685F4A4FF400714E4838F0B7FF4D4863
:1014A000FEF7A8FE03469AB241F2883349494B48F9
:1014B00032F09FFC4FF4FA701CF096FD554B1B78F0
:1014C000DBB2002B55D032201CF08EFD00BF4FF454
:1014D0000051514820F01CFE0346012BF7D1322069
:1014E0001CF082FD4B4B00221A70484B1B68002BEE
:1014F00029D1464B01221A60444B1B68474A4FF4DE
:101500000071344838F082FF3248FEF773FE03461C
:101510009AB241F288332F49304832F06AFC2D4AA2
:101520003F4B104619465B231A4638F02DFF2948D9
:10153000FEF760FE03469AB241F2883325492748F8
:1015400032F057FC15E0314B00221A602F4B1B681C
:101550002F4A4FF400711F4838F058FF1D48FEF71E
:1015600049FE03469AB241F288331A491B4832F0C9
:1015700040FC264B1B68002B5AD134F031FC1F4B2A
:10158000284A4FF48061134838F040FF1148FEF7B5
:1015900031FE03469AB241F288330E490F4832F0C9
:1015A00028FC214B1B68214A4FF48061094838F020
:1015B0002DFF0848FEF71EFE03469AB241F288331B
:1015C0000449064832F015FC4FF4FA701CF00CFD8B
:1015D00030E000BF20160020BCBF0308941D00208F
:1015E00044C003080000024070C0030888C003081C
:1015F00090C00308941A00209CC00308A410002087
:10160000B0C00308CCC00308E4C00308CC1000201D
:1016100008C10308CC0800200008024028C10308C4
:1016200050C10308ACC1030884100020C8C10308DE
:1016300036F0C2FC0221144820F06AFD03461A4627
:10164000124B1A60114B1B681946114835F069FEA0
:1016500000221049104828F0E6FC00220F490E48ED
:1016600028F0E6FD0E4A0121022019F065FA0D4A24
:101670000121002019F060FA0B4A0121012019F024
:101680005BFA34F0ADFB19E700080240E0110020DE
:10169000E4C103088C100020201A0020E81100206B
:1016A000DC110020F4120020D811002080B598B081
:1016B00000AF07F1300330220021184638F06FFEEA
:1016C00007F11C0300221A605A609A60DA601A61FE
:1016D00007F1080300221A605A609A60DA601A6102
:1016E00000237B60314A314B1B6C43F08053136401
:1016F0002E4B1B6C03F080537B607B6800233B60A8
:101700002B4A2B4B1B6823F4404343F400431360E4
:10171000274B1B6803F440433B603B680A233B6351
:101720000123FB6310233B6401237B640223BB641E
:101730000023FB6410233B654FF4A8737B650423EF
:10174000BB650723FB6507F13003184627F0D8F97E
:101750000346002B01D000F039F80F23FB61022370
:101760003B6200237B624FF48053BB620023FB6229
:1017700007F11C030221184627F03AFC0346002B10
:1017800001D000F023F80223BB604FF400737B61AB
:1017900007F10803184627F07FFF0346002B01D00E
:1017A00000F014F800BF6037BD4680BD003802402D
:1017B0000070004080B500AF0022002128201CF0FE
:1017C00000FF28201CF019FF00BF80BD80B400AFCF
:1017D000FEE7000080B500AF0F4B104A1A600E4BB9
:1017E00000225A600C4B7F229A600B4BFF22DA607A
:1017F000094B00221A61084B00225A61064B002255
:101800009A61054828F000FA0346002B01D0FFF743
:10181000DDFF00BF80BD00BF201A0020002800406F
:1018200080B483B000AF78607B681B68054A934240
:1018300002D1054B01221A6000BF0C37BD465DF88E
:10184000047B7047002800403C0E474280B483B0C0
:1018500000AF78607B681B68054A934202D1054B54
:1018600000221A6000BF0C37BD465DF8047B70474C
:10187000002800403C0E474280B582B000AF0023F4
:101880007B60104A0F4B5B6C43F4804353640D4BF9
:101890005B6C03F480437B607B6800233B60094AF8
:1018A000084B1B6C43F080531364064B1B6C03F016
:1018B00080533B603B6807201CF078FE00BF083770
:1018C000BD4680BD0038024080B400AF00BFBD46B9
:1018D0005DF8047B704780B400AFFEE780B400AFD2
:1018E000FEE780B400AFFEE780B400AFFEE780B44F
:1018F00000AF00BFBD465DF8047B704780B400AF09
:1019000000BFBD465DF8047B704780B400AF00BFE8
:10191000BD465DF8047B704780B500AF1CF004FB4A
:1019200000BF80BD80B500AF012020F065FC00BF86
:1019300080BD80B500AF022020F05EFC00BF80BDFE
:1019400080B500AF102020F057FC00BF80BD80B5EF
:1019500000AF202020F050FC802020F04DFC00BF84
:1019600080BD000080B500AF02482DF032FF00BFFF
:1019700080BD00BF941A002080B500AF024833F04C
:10198000A7F900BF80BD00BF941D002080B500AF47
:101990004FF4005020F030FC4FF4806020F02CFC1D
:1019A00000BF80BD80B582B000AF00237B60194BC3
:1019B000194A1A60194B1B685A1C18490A60002BF7
:1019C00022D1144824F010FD0346002B1CD11148ED
:1019D00000F0C6F97B68002B16D10E4800F08CF998
:1019E0000346002B03D06FF007037B600CE000215F
:1019F000084826F04FFD0346002B03D06FF0070385
:101A00007B6001E000237B607B6818460837BD4699
:101A100080BD00BF401A002000540040D0080020C4
:101A200080B582B000AF00237B600F4B1B68002B9A
:101A300014D00D4B1B68013B0B4A13600A4B1B680B
:101A4000002B0BD1094800F0D5F9084820F024FDFF
:101A50000346002B02D06FF007037B607B681846BB
:101A60000837BD4680BD00BFD0080020401A0020C6
:101A700080B584B000AF03463960FB800023FB6073
:101A8000F9884FF480533A68064823F031F803464A
:101A9000002B02D06FF00203FB60FB681846103782
:101AA000BD4680BD401A002080B58AB004AFBA6040
:101AB0001A460346FB810B46BB811346FB8000237D
:101AC0007B61BA89F9894FF480530293FB880193B3
:101AD000BB68009301230C4822F09EF80346002BBC
:101AE0000CD0094824F09CFC0346042B03D16FF072
:101AF00065037B6102E06FF003037B617B6918463D
:101B00001837BD4680BD00BF401A002080B58AB09E
:101B100004AFBA601A460346FB810B46BB811346ED
:101B2000FB8000237B61BA89F9894FF480530293CB
:101B3000FB880193BB68009301230C4822F066F9EF
:101B40000346002B0CD0094824F06AFC0346042B02
:101B500003D16FF065037B6102E06FF003037B61EB
:101B60007B6918461837BD4680BD00BF401A00206B
:101B700080B58AB004AFBA601A460346FB810B46B3
:101B8000BB811346FB8000237B61BA89F9894FF43E
:101B900080530293FB880193BB68009310230C4889
:101BA00022F03AF80346002B0CD0094824F038FC08
:101BB0000346042B03D16FF065037B6102E06FF0F5
:101BC00003037B617B6918461837BD4680BD00BFA3
:101BD000401A002080B58AB004AFBA601A460346A6
:101BE000FB810B46BB811346FB8000237B61BA89D6
:101BF000F9894FF480530293FB880193BB680093EB
:101C000010230C4822F002F90346002B0CD009489F
:101C100024F006FC0346042B03D06FF065037B61C0
:101C200002E06FF003037B617B6918461837BD46FD
:101C300080BD00BF401A002080B586B002AF0346C9
:101C40003960FB801346BB800023FB60BA88F988AB
:101C50004FF48053009313463A680C4820F060FC20
:101C60000346002B0CD0094824F0DAFB0346042B72
:101C700003D06FF06503FB6002E06FF00303FB60CD
:101C8000FB6818461037BD4680BD00BF401A0020D3
:101C900080B586B002AF03463960FB801346BB8037
:101CA0000023FB60BA88F9884FF4805300931346F1
:101CB0003A680C4820F032FD0346002B0CD009484E
:101CC00024F0AEFB0346042B03D06FF06503FB60EA
:101CD00002E06FF00303FB60FB6818461037BD4657
:101CE00080BD00BF401A002080B500AF1CF030F965
:101CF0000346184680BD000080B584B000AF786010
:101D00000023FB737B68144A1A607B68134A5A608D
:101D10007B6800229A607B680022DA607B684FF45F
:101D200080421A617B6800225A617B6800229A61B6
:101D30007B680022DA617B6800221A62786820F0F2
:101D400073FA0346002B01D00123FB73FB7B18467B
:101D50001037BD4680BD00BF00540040801A060009
:101D600080B58AB000AF786000233B611F4A1F4BEB
:101D70001B6B43F0020313631C4B1B6B03F002034A
:101D80003B613B694FF480737B611223BB6101238C
:101D9000FB6103233B6204237B6207F114031946B2
:101DA00013481FF04FFF4FF400737B611223BB6198
:101DB0000123FB6103233B6204237B6207F11403CD
:101DC00019460B481FF03EFF0023FB60074A074BF4
:101DD0001B6C43F400131364044B1B6C03F40013DB
:101DE000FB60FB6800BF2837BD4680BD003802405D
:101DF0000004024080B582B000AF7860094A094B08
:101E00001B6C23F4001313644FF48071064820F018
:101E10009BF84FF40071044820F096F800BF083793
:101E2000BD4680BD003802400004024080B400AFCF
:101E3000164A164BD3F8883043F47003C2F8883042
:101E4000134A134B1B6843F001031360104B00222D
:101E50009A600F4A0E4B1B6823F0847323F480337F
:101E600013600B4B0B4A5A60094A094B1B6823F459
:101E700080231360064B0022DA60044B4FF00062AF
:101E80009A6000BFBD465DF8047B704700ED00E03E
:101E9000003802401030002480B487B000AF002327
:101EA0003B6100237B610223FB600023BB600223B4
:101EB0007B60314B9B6803F00C033B613B69042B57
:101EC00007D0082B09D0002B3DD12C4B2C4A1A608F
:101ED0003DE02A4B2B4A1A6039E0274B5B689B0D8B
:101EE00003F00103BB60244B5B6803F03F037B609E
:101EF000BB68002B0CD0234A7B68B2FBF3F31E4A6D
:101F000052689209C2F3080202FB03F37B610BE003
:101F10001B4A7B68B2FBF3F3174A52689209C2F37B
:101F2000080202FB03F37B61134B5B681B0C03F09D
:101F3000030301335B00FB607A69FB68B2FBF3F3D8
:101F40000E4A136003E00D4B0D4A1A6000BF0A4BA6
:101F50009B681B0903F00F030B4AD35C3B61074BE3
:101F60001A683B6922FA03F3044A136000BF1C3766
:101F7000BD465DF8047B7047003802400400002035
:101F80000024F40000127A00FCC1030880B58CB074
:101F900000AF07F1200300221A605A609A60DA60ED
:101FA00007F10C0300221A605A609A60DA601A6125
:101FB0003B1D00221A605A60264B274A1A60254BA7
:101FC00041F287325A60234B00229A60214B41F63E
:101FD0003F72DA601F4B00221A611E4B00225A61C9
:101FE0001C4B80229A611B4829F0D7FF0346002B27
:101FF00001D0FFF7EBFB4FF480533B6207F1200366
:10200000194614482EF08CFB0346002B01D0FFF735
:10201000DDFB0423FB6000233B6107F10C03194641
:102020000C482EF050FC0346002B01D0FFF7CEFBEE
:1020300000237B600023BB603B1D1946054831F03F
:1020400015FB0346002B01D0FFF7C0FB00BF303764
:10205000BD4680BD941A00200000014080B584B0C8
:1020600000AF78607B681B680E4A934215D100234D
:10207000FB600D4A0C4B5B6C43F0010353640A4B4D
:102080005B6C03F00103FB60FB6800220021192058
:102090001CF097FA19201CF0B0FA00BF1037BD46AB
:1020A00080BD00BF000001400038024080B582B012
:1020B00000AF78607B681B68074A934208D1074AE3
:1020C000064B5B6C23F00103536419201CF0A3FA48
:1020D00000BF0837BD4680BD000001400038024007
:1020E00080B584B000AF786039607B68002B03D185
:1020F0004FF0FF33FB6030E03B681A687B681A6082
:102100003B685A687B685A603B689A687B689A604B
:102110003B681A7B7B681A733B681A697B681A6193
:102120003B685A697B685A613B689A697B689A6127
:102130007B680C4A1A627B680B4ADA617B687A68B2
:102140005A627B681B68002B04D07B681B68984729
:10215000F86002E04FF0FF33FB60FB681846103771
:10216000BD4680BD5D290008BF29000880B582B04A
:1021700000AF78607B6893F82830002B08D178682E
:1021800000F072FB0346002B02D04FF0FF3304E057
:102190007B68012283F82820002318460837BD46B3
:1021A00080BD80B582B000AF78607B6893F828303E
:1021B000012B11D1786800F08FF80346002B02D074
:1021C0004FF0FF330DE0786800F08DF90346002BE7
:1021D00002D04FF0FF3304E07B68002283F8282010
:1021E000002318460837BD4680BD80B582B000AFD9
:1021F000786039607B681C333968184600F080FECF
:102200000346002B02D04FF0FF3300E000231846B6
:102210000837BD4680BD000080B483B000AF786051
:1022200039603B6801229A703B6800225A703B6813
:1022300001221A703B680022DA703B68074A5A6034
:102240003B68064A9A603B684FF00002DA60002360
:1022500018460C37BD465DF8047B704700004841C6
:1022600080B483B000AF786039607B68002B02D106
:102270004FF0FF3305E07B6893F828203B681A7025
:10228000002318460C37BD465DF8047B704780B5C7
:1022900082B000AF78607B6893F82930012B01D1C0
:1022A000002315E07B6893F82A30002B0BD17B6864
:1022B0001C330121184600F034FE0346002B02D0E7
:1022C0004FF0FF3304E07B68012283F829200023CC
:1022D00018460837BD4680BD80B582B000AF786033
:1022E0007B6893F82930002B01D1002315E07B682F
:1022F00093F82A30002B0BD17B681C330021184641
:1023000000F00FFE0346002B02D04FF0FF3304E035
:102310007B68002283F82920002318460837BD4631
:1023200080BD80B582B000AF786039603968786868
:1023300000F026FA034618460837BD4680BD80B532
:1023400082B000AF786087ED000A97ED000A7868E8
:1023500000F05AFA034618460837BD4680BD000013
:1023600080B588B000AF786039607B681C3307F1B6
:102370000C021146184601F019F80346002B02D052
:102380004FF0FF336BE07B6803F11C0207F10C0395
:1023900004331946104600F06BFF0346002B02D0B1
:1023A0004FF0FF335BE07B6803F11C0207F10C0385
:1023B00008331946104601F01DF80346002B02D0E1
:1023C0004FF0FF334BE07B6803F11C0207F10C0375
:1023D0000C331946104600F069FF0346002B02D06B
:1023E0004FF0FF333BE00023BB837B681C3307F1D6
:1023F0001C021146184600F03DFD0346002B02D09A
:102400004FF0FF332BE0B7F91C3007EE903AF8EEAF
:10241000E77A07F10C03B0EE670A184600F065FA98
:10242000F0EE407A3B68C3ED007A3B68D3ED007A6A
:10243000F5EEC07AF1EE10FA03D53B684FF00002DA
:102440001A603B68D3ED007A9FED077AF4EEC77A05
:10245000F1EE10FA02DD3B68044A1A6000231846C8
:102460002037BD4680BD00BF0000C8420000C84202
:1024700080B582B000AF786039607B681C33396802
:10248000184600F0DEFC0346002B02D04FF0FF336D
:1024900000E0002318460837BD4680BD80B582B0F5
:1024A00000AF78607B6893F82A30012B01D10023BC
:1024B00015E07B6893F82930002B0BD17B681C3327
:1024C0000121184600F02DFD0346002B02D04FF0ED
:1024D000FF3304E07B68012283F82A20002318469A
:1024E0000837BD4680BD80B582B000AF78607B689C
:1024F00093F82A30002B01D1002315E07B6893F874
:102500002930002B0BD17B681C330021184600F0CA
:1025100008FD0346002B02D04FF0FF3304E07B6838
:10252000002283F82A20002318460837BD4680BDC4
:1025300080B582B000AF786039603968786800F0A3
:102540001FF9034618460837BD4680BD80B582B0E6
:1025500000AF786087ED000A97ED000A786800F018
:1025600053F9034618460837BD4680BD80B588B08C
:1025700000AF786039607B681C3307F10C021146AC
:10258000184600F05BFF0346002B02D04FF0FF33EC
:1025900052E07B6803F11C0207F10C030433194677
:1025A000104600F0A1FE0346002B02D04FF0FF338F
:1025B00042E07B6803F11C0207F10C030833194663
:1025C000104600F05FFF0346002B02D04FF0FF33B0
:1025D00032E07B6803F11C0207F10C030C3319464F
:1025E000104600F0B2FE0346002B02D04FF0FF333E
:1025F00022E00023BB837B681C3307F11C021146D9
:10260000184600F05AFC0346002B02D04FF0FF336F
:1026100012E0B7F91C3007EE903AF8EEE77A07F1CE
:102620000C03B0EE670A184600F05FF9F0EE407A4E
:102630003B68C3ED007A002318462037BD4680BDB5
:1026400080B582B000AF786039607B681C33396830
:10265000184600F0DDFB0346002B02D04FF0FF339D
:1026600000E0002318460837BD4680BD80B582B023
:1026700000AF78607B681C330021184600F0ECFA4C
:102680000346002B02D04FF0FF330CE07B681C3375
:102690000121184600F07DFB0346002B02D04FF0CD
:1026A000FF3300E0002318460837BD4680BD80B5E3
:1026B00084B000AF786039607B681C3307F10F028B
:1026C0001146184600F0BDFB0346002B02D04FF028
:1026D000FF331BE07B681C3307F10E0211461846DE
:1026E00000F096FB0346002B02D04FF0FF330DE0C5
:1026F000FB7B002B06D0BB7B002B03D03B68012269
:102700001A7002E03B6800221A7000231846103746
:10271000BD4680BD80B584B000AFF8600B467A60DE
:10272000FB72FB6803F11C00F97A01237A6800F060
:1027300077F90346002B02D04FF0FF3300E000236F
:1027400018461037BD4680BD80B582B000AF7860B6
:102750000B46FB701346BB707B6803F11C00BA1C70
:10276000F978012300F074F90346002B02D04FF0F2
:10277000FF3300E0002318460837BD4680BD000047
:1027800080B584B000AF786039600023FB607B685F
:102790001C3307F10B021146184600F083FA03467A
:1027A000002B02D04FF0FF3325E0FB7A032B1DD81E
:1027B00001A252F823F000BFC9270008D327000860
:1027C000DD270008E52700083B684FF000021A608B
:1027D00010E03B684FF07E521A600BE03B68084AFD
:1027E0001A6007E03B68074A1A6003E04FF0FF33C6
:1027F000FB6000BFFB6818461037BD4680BD00BFB8
:102800000000E0400000484180B584B000AF78602F
:1028100087ED000AD7ED007AB7EE007AF4EEC77ABA
:10282000F1EE10FA01D801230BE0D7ED007AB1EEFA
:102830000C7AF4EEC77AF1EE10FA01D8022300E028
:102840000323FB737B681C33FA7B1146184600F0A8
:1028500003FA0346002B02D04FF0FF3300E00023C1
:1028600018461037BD4680BD80B582B000AF786095
:102870007B681C330021184600F053FB0346002BF5
:1028800002D04FF0FF3317E07B681C33012118465C
:1028900000F040FA0346002B02D04FF0FF330BE06C
:1028A000B7EE000A7868FFF7AFFF0346002B02D0AF
:1028B0004FF0FF3300E0002318460837BD4680BDC7
:1028C00080B582B000AF78607B681C330121184668
:1028D00000F0F5FB0346002B02D04FF0FF3300E081
:1028E000002318460837BD4680BD80B483B000AFD2
:1028F000786087ED000A7B6893ED037A7B68D3EDFF
:10290000017A37EE677AD7ED007A27EE277A7B686F
:10291000D3ED026A7B68D3ED017A66EEA76A7B6825
:1029200093ED006A7B68D3ED037A66EE277A76EE44
:10293000E77A37EE277A7B68D3ED026A7B68D3EDBE
:10294000007A76EEE77AC7EE276AF0EE667AB0EEA6
:10295000670A0C37BD465DF8047B704790B587B0B9
:1029600000AFF8607A601A460B46FB7213463B8153
:10297000FB687B617B699B68002B0ED17B695C697E
:102980007B691B7B98B2FB7A63F07F03DBB299B261
:102990003B897A68A04703460DE07B695C697B69E7
:1029A0001B7B98B2FB7A43F04003DBB299B23B89C0
:1029B0007A68A047034618461C37BD4690BD90B5BF
:1029C00087B000AFF8607A601A460B46FB72134678
:1029D0003B81FB687B617B699B68002B0ED17B6927
:1029E0001C697B691B7B98B2FB7A63F07F03DBB2C7
:1029F00099B23B897A68A04703460DE07B691C6960
:102A00007B691B7B98B2FB7A43F04003DBB299B23F
:102A10003B897A68A047034618461C37BD4690BDDF
:102A200090B587B000AFF8607A601A460B46FB722B
:102A300013463B81FB685C68FB6898683B89F97AC0
:102A40007A68A04778617B6918461C37BD4690BDFF
:102A500090B587B000AFF8607A601A460B46FB72FB
:102A600013463B81FB681C68FB6898683B89F97AD0
:102A70007A68A04778617B6918461C37BD4690BDCF
:102A800080B584B000AF78600B46FB7007F1080298
:102A9000012310217868FFF7C3FFF860FB68002B63
:102AA0000FD1FB7803F00703DAB23B7A62F302033B
:102AB0003B7207F10802012310217868FFF7C8FF75
:102AC000F860FB6818461037BD4680BD80B584B0FD
:102AD00000AF7860396007F108020123102178689F
:102AE000FFF79EFFF8603B7AC3F30203DBB2072BCC
:102AF00032D801A252F823F0192B0008212B00082C
:102B0000292B0008312B0008392B0008412B000825
:102B1000492B0008512B00083B6800221A701FE067
:102B20003B6801221A701BE03B6802221A7017E012
:102B30003B6803221A7013E03B6804221A700FE00E
:102B40003B6805221A700BE03B6806221A7007E00A
:102B50003B6807221A7003E03B6808221A7000BF26
:102B6000FB6818461037BD4680BD00BF80B584B0F5
:102B700000AF78600B46FB7007F1080201231021BB
:102B80007868FFF74DFFF860FB68002B0FD1FB78EA
:102B900003F00703DAB23B7A62F3C5033B7207F135
:102BA0000802012310217868FFF752FFF860FB68E4
:102BB00018461037BD4680BD80B584B000AF786040
:102BC000396007F10802012310217868FFF728FF18
:102BD000F8603B7AC3F30203DBB2072B32D801A2C1
:102BE00052F823F0052C00080D2C0008152C0008C5
:102BF0001D2C0008252C00082D2C0008352C000861
:102C00003D2C00083B6800221A701FE03B6801223F
:102C10001A701BE03B6802221A7017E03B6803221F
:102C20001A7013E03B6804221A700FE03B6805221B
:102C30001A700BE03B6806221A7007E03B68072217
:102C40001A7003E03B6808221A7000BFFB68184640
:102C50001037BD4680BD00BF80B584B000AF78603E
:102C60000B46FB7007F10802012320217868FFF76B
:102C7000D7FEF860FB68002B0FD1FB7803F003034D
:102C8000DAB23B7A62F301033B7207F108020123D7
:102C900020217868FFF7DCFEF860FB6818461037E3
:102CA000BD4680BD80B584B000AF7860396007F163
:102CB0000802012320217868FFF7B2FEF8603B7A12
:102CC000C3F30103DBB2032B1AD801A252F823F09D
:102CD000E12C0008E92C0008F12C0008F92C000870
:102CE0003B6800221A700FE03B6801221A700BE06B
:102CF0003B6802221A7007E03B6803221A7003E067
:102D00003B6804221A7000BFFB6818461037BD46A6
:102D100080BD00BF80B584B000AF78600B46FB700B
:102D200007F10802012320217868FFF779FEF86097
:102D3000FB68002B0FD1FB7803F00103DAB23B7A7A
:102D400062F382033B7207F10802012320217868B5
:102D5000FFF77EFEF860FB6818461037BD4680BD61
:102D600080B584B000AF7860396007F108020123B4
:102D700020217868FFF754FEF8603B7AC3F38003A4
:102D8000DBB21A463B681A70FB6818461037BD461E
:102D900080BD80B584B000AF78600B46FB7007F152
:102DA0000802012321217868FFF73AFEF860FB68EA
:102DB000002B0FD1FB7803F00103DAB23B7A62F308
:102DC00000033B7207F10802012321217868FFF715
:102DD0003FFEF860FB6818461037BD4680BD80B5E1
:102DE00084B000AF7860396007F108020123212127
:102DF0007868FFF715FEF8603B7AC3F30003DBB297
:102E00001A463B681A70FB6818461037BD4680BDED
:102E100080B584B000AF7860396007F10802012303
:102E200027217868FFF7FCFDF8603B7AC3F30003C5
:102E3000DBB21A463B681A70FB6818461037BD466D
:102E400080BD80B584B000AF7860396007F10802BA
:102E5000012327217868FFF7E3FDF8603B7AC3F38D
:102E60004003DBB21A463B681A70FB6818461037FD
:102E7000BD4680BD80B584B000AF7860396007F191
:102E80000802022328217868FFF7CAFDF8607B7AE0
:102E90001AB23B681A803B68B3F900309BB21B0240
:102EA0009AB23B7A9BB213449BB21AB23B681A8027
:102EB000FB6818461037BD4680BD80B584B000AFB2
:102EC0007860396007F1080202232A217868FFF749
:102ED000A7FDF8607B7A1AB23B681A803B68B3F9A9
:102EE00000309BB21B029AB23B7A9BB213449BB256
:102EF0001AB23B681A80FB6818461037BD4680BD81
:102F000080B584B000AF7860396001233A680F2142
:102F10007868FFF785FDF860FB6818461037BD46F6
:102F200080BD80B584B000AF78600B46FB7007F1C0
:102F30000802012320217868FFF772FDF860FB6822
:102F4000002B0FD1FB7803F00103DAB23B7A62F376
:102F5000C7133B7207F10802012320217868FFF7AD
:102F600077FDF860FB6818461037BD4680BD80B518
:102F700084B000AF7860396007F108020123202196
:102F80007868FFF74DFDF8603B7AC3F3C013DBB2FE
:102F90001A463B681A70FB6818461037BD4680BD5C
:102FA00080B584B000AF78600B46FB7007F1080273
:102FB000012321217868FFF733FDF860FB68002BBF
:102FC0000FD1FB7803F00103DAB23B7A62F34103DD
:102FD0003B7207F10802012321217868FFF738FDD1
:102FE000F860FB6818461037BD4680BD80B584B0D8
:102FF00000AF7860396007F1080201232121786869
:10300000FFF70EFDF8603B7AC3F34003DBB21A46CC
:103010003B681A70FB6818461037BD4680BD80B506
:1030200084B000AF78600B46FB7007F10802012303
:1030300021217868FFF7F4FCF860FB68002B0FD1C2
:10304000FB7803F00103DAB23B7A62F3C7133B72F9
:1030500007F10802012321217868FFF7F9FCF860E5
:10306000FB6818461037BD4680BD80B584B000AF00
:103070007860396007F10802012321217868FFF7A1
:10308000CFFCF8603B7AC3F3C013DBB21A463B684F
:103090001A70FB6818461037BD4680BD80B584B0F5
:1030A00000AF7860396001233A6827217868FFF71C
:1030B000B7FCF860FB6818461037BD4680BD80B588
:1030C00084B000AF78600B46FB7007F10802012363
:1030D00022217868FFF7A4FCF860FB68002B0FD171
:1030E000FB7803F00103DAB23B7A62F382033B72AE
:1030F00007F10802012322217868FFF7A9FCF86094
:10310000FB6818461037BD4680BD80B584B000AF5F
:103110007860396007F10802012322217868FFF7FF
:103120007FFCF8603B7AC3F38003DBB21A463B684E
:103130001A70FB6818461037BD4680BD80B584B054
:1031400000AF78600B46FB7007F1080201232221D3
:103150007868FFF765FCF860FB68002B0FD1FB78FF
:1031600003F00103DAB23B7A62F386133B7207F194
:103170000802012322217868FFF76AFCF860FB68E7
:1031800018461037BD4680BD80B584B000AF78606A
:10319000396007F10802012322217868FFF740FC1B
:1031A000F8603B7AC3F38013DBB2002B02D0012B13
:1031B00004D007E03B6800221A7007E03B68012258
:1031C0001A7003E03B6802221A7000BFFB681846C1
:1031D0001037BD4680BD80B584B000AF78600B4627
:1031E000FB7007F10802012322217868FFF718FC21
:1031F000F860FB68002B0FD1FB7803F00103DAB213
:103200003B7A62F3C7133B7207F1080201232221C4
:103210007868FFF71DFCF860FB6818461037BD465C
:1032200080BD80B584B000AF7860396007F10802D6
:10323000012322217868FFF7F3FBF8603B7AC3F3A0
:10324000C013DBB2002B02D0012B04D007E03B6897
:1032500000221A7007E03B6801221A7003E03B6805
:1032600002221A7000BFFB6818461037BD4680BDA9
:1032700080B584B000AF7860396007F10B0201239C
:1032800030217868FFF7CCFBF860FB7A07EE903AC4
:10329000B8EEE77AF0EE006AC7EE267A3B68C3ED37
:1032A000007AFB6818461037BD4680BD80B584B0F3
:1032B00000AF7860396007F10B0201233121786893
:1032C000FFF7AEFBF860FB7A07EE903AB8EEE77ACC
:1032D000F0EE006AC7EE267A3B68C3ED007AFB6821
:1032E00018461037BD4680BD80B586B000AF786007
:1032F000396007F10F02012332217868FFF790FB54
:1033000078617B69002B1BD107F110020123352165
:103310007868FFF785FB78613B7CC3F30103DBB280
:10332000FB74FB7C1B02FA7B134407EE903AB8EE69
:10333000E77AF2EE006AC7EE267A3B68C3ED007AC0
:103340007B6918461837BD4680BD80B586B000AF92
:103350007860396007F10F02012333217868FFF7A5
:103360005FFB78617B69002B1BD107F11002012301
:1033700035217868FFF754FB78613B7CC3F3810308
:10338000DBB2FB74FB7C1B02FA7B134407EE903A22
:10339000B8EEE77AF2EE006AC7EE267A3B68C3ED34
:1033A000007A7B6918461837BD4680BD80B584B069
:1033B00000AF7860396007F108020223362178688F
:1033C000FFF72EFBF8607B7A9BB21B029AB23B7A26
:1033D0009BB213449BB27B81B7F90A3007EE903A57
:1033E000F8EEE77A3B68C3ED007AFB6818461037C1
:1033F000BD4680BD80B584B000AF7860396007F10C
:10340000080202233A217868FFF70AFBF8607B7A0A
:103410009BB21B029AB23B7A9BB213449BB27B8154
:10342000B7F90A3007EE903AF8EEE77A3B68C3ED59
:10343000007AFB6818461037BD4680BD80B584B061
:1034400000AF7860396007F1080202233C217868F8
:10345000FFF7E6FAF8607B7A9BB21B029AB23B7ADE
:103460009BB213449BB27B81B7F90A3007EE903AC6
:10347000F8EEE77A3B68C3ED007AFB681846103730
:10348000BD4680BD80B584B000AF7860396007F17B
:10349000080202233E217868FFF7C2FAF8607B7ABF
:1034A0009BB21B029AB23B7A9BB213449BB27B81C4
:1034B000B7F90A3007EE903AF8EEE77A3B68C3EDC9
:1034C000007AFB6818461037BD4680BD80B584B0D1
:1034D00000AF786039600023FB607B68002B03D16C
:1034E0004FF0FF33FB604DE03B681A687B681A6061
:1034F0003B685A687B685A603B689A687B689A6048
:103500003B681A7B7B681A733B681A697B681A618F
:103510003B685A697B685A613B689A697B689A6123
:103520007B681B4A1A627B681A4ADA617B687A6890
:103530005A627B681B68002B03D14FF0FF33FB609E
:1035400020E07B681B6898470346002B03D04FF0B0
:10355000FF33FB6016E07B689B68022B12D17B680F
:1035600093F82830002B0DD10523FB72FB7A1A4605
:103570002121786800F0A1FD0346002B02D04FF016
:10358000FF33FB60FB6818461037BD4680BD00BFA7
:10359000254F00085B4F000880B582B000AF78600F
:1035A0007B681C330121184602F023FA0346002BE6
:1035B00002D04FF0FF334BE07B681C3301211846EB
:1035C00002F00CF80346002B02D04FF0FF333FE02F
:1035D0007B681C330021184603F017FE0346002BBE
:1035E00002D04FF0FF3333E07B681C3304211846D0
:1035F00001F0DAFD0346002B02D04FF0FF3327E045
:103600007B68154ADA627B68002283F830207B6889
:10361000002283F831207B681C330021184601F01A
:10362000CDFE0346002B02D04FF0FF3310E07B6845
:103630001C330021184602F010F80346002B02D07C
:103640004FF0FF3304E07B68012283F82820002339
:1036500018460837BD4680BD0000C84280B582B01C
:1036600000AF7860786800F088F80346002B02D03D
:103670004FF0FF3310E07B684FF00002DA627B68A6
:10368000002283F830207B68002283F831207B6899
:10369000002283F82820002318460837BD4680BD45
:1036A00080B582B000AF786039607B681C333968C0
:1036B000184602F08DF90346002B02D04FF0FF337D
:1036C00000E0002318460837BD4680BD80B483B0B3
:1036D00000AF786039603B6801221A703B680022B5
:1036E0005A703B6800229A703B680022DA703B688F
:1036F00000225A603B6810229A603B680022DA6020
:103700003B684FF000021A613B68064A5A613B6809
:103710004FF000029A61002318460C37BD465DF851
:10372000047B70470000C84480B582B000AF786069
:103730007B6893F82930012B01D1002319E07B68C5
:10374000D3ED0B7A7B6893F830107B6893F83130B7
:103750001A46B0EE670A786801F036FA0346002B85
:1037600002D04FF0FF3304E07B68012283F8292068
:10377000002318460837BD4680BD80B582B000AF33
:1037800078607B6893F82930002B01D1002310E08A
:103790007B681C330021184601F010FE0346002B05
:1037A00002D04FF0FF3304E07B68002283F8292029
:1037B000002318460837BD4680BD000080B584B0A0
:1037C00000AF786039600023FB607B681C3307F131
:1037D0000B021146184601F067FF0346002B02D08A
:1037E0004FF0FF33A0E07B681C3307F10A0211465B
:1037F000184601F029FD0346002B02D04FF0FF339D
:1038000092E0BB7A1B2B00F2878001A252F823F0D2
:1038100081380008CD380008CD380008CD380008C0
:10382000CD3800081939000819390008193900087D
:1038300081380008CD380008CD380008CD380008A0
:103840001939000819390008193900081939000810
:1038500081380008CD380008CD380008CD38000880
:10386000CD3800081939000819390008193900083D
:1038700081380008CD380008CD380008CD38000860
:10388000FB7A032B1AD801A252F823F09D380008C6
:10389000A5380008AD380008B53800083B68244A50
:1038A0001A6012E03B68234A1A600EE03B68224A25
:1038B0001A600AE03B68214A1A6006E03B68204A29
:1038C0001A604FF0FF33FB6000BF2CE0FB7A032B44
:1038D0001AD801A252F823F0E9380008F13800089C
:1038E000F9380008013900083B68164A1A6012E0EE
:1038F0003B68154A1A600EE03B680D4A1A600AE000
:103900003B680C4A1A6006E03B680D4A1A604FF0AB
:10391000FF33FB6000BF06E03B68094A1A604FF0C6
:10392000FF33FB6000BFFB6818461037BD4680BD03
:1039300023DB793F23DBF93F23DB794023DBF940AD
:10394000000080BF23DB793E23DBF93E80B584B0E5
:1039500000AF786039600023FB607B681C3307F19F
:103960000B021146184601F06FFD0346002B02D0F2
:103970004FF0FF33D4E17B681C3307F10A02114694
:10398000184601F061FC0346002B02D04FF0FF33D4
:10399000C6E1FB7A322B00F2BB8101A252F823F080
:1039A0006D3A0008773A0008153B00081D3B0008F7
:1039B000253B00082D3B0008353B00083D3B000837
:1039C000D93B0008753C0008113D0008113D000876
:1039D000113D0008113D0008113D0008113D00088F
:1039E000113D0008113D00086D3A0008113D000826
:1039F000113D0008113D0008113D0008113D00086F
:103A0000113D0008113D0008113D0008113D00085E
:103A1000113D0008113D0008113D0008113D00084E
:103A2000113D0008113D0008113D0008113D00083E
:103A3000113D0008113D0008113D0008113D00082E
:103A4000113D0008113D0008113D0008113D00081E
:103A5000113D0008113D0008113D0008113D00080E
:103A6000113D0008113D00086D3A00083B684FF019
:103A700000021A6053E1BB7A1B2B43D801A252F813
:103A800023F000BFFD3A0008FD3A0008FD3A0008A7
:103A9000FD3A0008F53A0008053B0008053B000820
:103AA000053B0008FD3A0008FD3A0008FD3A000811
:103AB000FD3A0008053B0008053B0008053B0008EF
:103AC000053B0008FD3A0008FD3A0008FD3A0008F1
:103AD000FD3A0008F53A0008053B0008053B0008E0
:103AE000053B0008FD3A0008FD3A0008FD3A0008D1
:103AF000FD3A00083B688C4A1A600AE03B688B4A32
:103B00001A6006E03B688A4A1A604FF0FF33FB6098
:103B100000BF04E13B68844A1A6000E13B68854AC3
:103B20001A60FCE03B68844A1A60F8E03B68834A0C
:103B30001A60F4E03B68824A1A60F0E0BB7A1B2B03
:103B400042D801A252F823F0C13B0008C13B000853
:103B5000C13B0008C13B0008B93B0008C93B000855
:103B6000C93B0008C93B0008C13B0008C13B000835
:103B7000C13B0008C13B0008C93B0008C93B000825
:103B8000C93B0008C93B0008C13B0008C13B000815
:103B9000C13B0008C13B0008B93B0008C93B000815
:103BA000C93B0008C93B0008C13B0008C13B0008F5
:103BB000C13B0008C13B00083B68624A1A600AE04A
:103BC0003B685F4A1A6006E03B68594A1A604FF04A
:103BD000FF33FB6000BFA2E0BB7A1B2B42D801A2DF
:103BE00052F823F05D3C00085D3C00085D3C000895
:103BF0005D3C0008553C0008653C0008653C000839
:103C0000653C00085D3C00085D3C00085D3C000828
:103C10005D3C0008653C0008653C0008653C000808
:103C2000653C00085D3C00085D3C00085D3C000808
:103C30005D3C0008553C0008653C0008653C0008F8
:103C4000653C00085D3C00085D3C00085D3C0008E8
:103C50005D3C00083B683C4A1A600AE03B68384A11
:103C60001A6006E03B68324A1A604FF0FF33FB608F
:103C700000BF54E0BB7A1B2B42D801A252F823F0BC
:103C8000F93C0008F93C0008F93C0008F93C000840
:103C9000F13C0008013D0008013D0008013D00081D
:103CA000F93C0008F93C0008F93C0008F93C000820
:103CB000013D0008013D0008013D0008013D0008EC
:103CC000F93C0008F93C0008F93C0008F93C000800
:103CD000F13C0008013D0008013D0008013D0008DD
:103CE000F93C0008F93C0008F93C0008F93C0008E0
:103CF0003B68164A1A600AE03B68114A1A6006E0FF
:103D00003B680B4A1A604FF0FF33FB6000BF06E0D0
:103D10003B68074A1A604FF0FF33FB6000BFFB6847
:103D200018461037BD4680BD00004841CDCCCC3F81
:103D3000000080BF0000C841000048420000C842A7
:103D4000000048430000C843000048440000C84445
:103D500080B582B000AF786087ED000A00220021B4
:103D600097ED000A786800F005F803461846083712
:103D7000BD4680BD80B584B000AFF86087ED020A13
:103D80000B46FB711346BB71FB6893F82930012B7E
:103D900009D1BA79FB79194697ED020AF86800F063
:103DA00013FF034608E0BA79FB79194697ED020A3A
:103DB000F86801F025F8034618461037BD4680BD67
:103DC00080B584B000AF786039600023FB607B6809
:103DD0001C3307F10B021146184601F065FC03463F
:103DE000002B02D04FF0FF3327E0FB7A032B1BD8C8
:103DF00001A252F823F000BF093E0008113E00085E
:103E0000193E0008213E00083B6802221A6013E0B8
:103E10003B6804221A600FE03B6808221A600BE03E
:103E20003B6810221A6007E03B684FF0FF321A60CF
:103E30004FF0FF33FB6000BFFB6818461037BD46EC
:103E400080BD00BF80B584B000AF786039603B684A
:103E5000022B0BDD3B68042B06DD3B68082B01DCE5
:103E6000022304E0032302E0012300E00023FB73AC
:103E70007B681C33FA7B1146184601F0EEFB0346C3
:103E8000002B02D04FF0FF3300E00023184610371C
:103E9000BD4680BD80B586B000AF78603960002334
:103EA0007B617B681C3307F10B021146184601F059
:103EB000CBF90346002B02D04FF0FF3389E07B683B
:103EC0001C3307F10C021146184601F036FD03467B
:103ED000002B02D04FF0FF337BE0FB7A1B2B73D813
:103EE00001A252F823F000BF593F0008913F00089B
:103EF000913F0008913F0008913F0008C93F00082A
:103F0000C93F0008C93F0008593F0008913F000819
:103F1000913F0008913F0008C93F0008C93F0008D1
:103F2000C93F0008C93F0008593F0008913F0008F9
:103F3000913F0008913F0008913F0008C93F0008E9
:103F4000C93F0008C93F0008593F0008913F0008D9
:103F5000913F0008913F0008B7F90C30002B00DAC0
:103F60000F331B111AB23B681A80B7F90E30002BC1
:103F700000DA0F331B111AB23B685A80B7F91030C0
:103F8000002B00DA0F331B111AB23B689A801FE036
:103F9000B7F90C30002B00DA03339B101AB23B68E0
:103FA0001A80B7F90E30002B00DA03339B101AB2D7
:103FB0003B685A80B7F91030002B00DA03339B10AE
:103FC0001AB23B689A8003E04FF0FF337B6100BF79
:103FD0007B6918461837BD4680BD00BF80B586B0E6
:103FE00000AF786039604FF00003FB6007F1100309
:103FF00019467868FFF74EFF0346002B02D04FF0BA
:10400000FF333CE007F10C0319467868FFF7D6FB55
:104010000346002B02D04FF0FF3330E0B7F91030E9
:1040200007EE903AB8EEE77AD7ED037A67EE277A93
:10403000FDEEE77A17EE902A3B681A60B7F9123066
:1040400007EE903AB8EEE77AD7ED037A67EE277A73
:10405000FDEEE77A17EE902A3B685A60B7F9143004
:1040600007EE903AB8EEE77AD7ED037A67EE277A53
:10407000FDEEE77A17EE902A3B689A600023184617
:104080001837BD4680BD80B584B000AFF8600B46E0
:104090007A60FB72FB6803F11C00F97A01237A68ED
:1040A00000F076FF0346002B02D04FF0FF3300E014
:1040B000002318461037BD4680BD80B582B000AFE2
:1040C00078600B46FB701346BB707B6803F11C00E5
:1040D000BA1CF978012300F073FF0346002B02D0CD
:1040E0004FF0FF3300E0002318460837BD4680BD7F
:1040F00080B582B000AF78600B46FB70FB78012B77
:1041000002D94FF0FF330DE07B681C33FA7811467B
:10411000184602F01EF80346002B02D04FF0FF3382
:1041200000E0002318460837BD4680BD80B584B046
:1041300000AF78607B681C330121184601F068FDF0
:104140000346002B02D04FF0FF3320E07B681C3386
:1041500007F10C021146184602F077F90346002BCE
:1041600002D04FF0FF3312E03B7B43F001033B737F
:104170007B681C3307F10C021146184602F0FEF86A
:104180000346002B02D04FF0FF3300E00023184617
:104190001037BD4680BD80B584B000AF78607B68C5
:1041A0001C3307F10C021146184602F04EF9034683
:1041B000002B02D04FF0FF3312E03B7B6FF3000384
:1041C0003B737B681C3307F10C021146184602F062
:1041D000D5F80346002B02D04FF0FF3300E0002358
:1041E00018461037BD4680BD80B582B000AF7860FC
:1041F0000B46FB707B681C33FA781146184601F0B9
:10420000D7FD0346002B02D04FF0FF3300E0002320
:1042100018460837BD4680BD80B584B000AF7860D1
:104220000023FB609FED280A7868FFF791FD0346A5
:10423000002B02D04FF0FF3342E002217868FFF7F5
:1042400001FE0346002B02D04FF0FF3338E07B68BD
:104250001C330021184602F087F90346002B02D0D8
:104260004FF0FF332CE07B681C330221184602F02C
:104270003CF90346002B02D04FF0FF3320E07B686F
:104280001C3307F108021146184602F066F803468F
:10429000002B02D04FF0FF3312E03B7A43F02003B3
:1042A0003B727B681C3307F108021146184601F087
:1042B000EAFF0346002B02D04FF0FF3300E0FB681B
:1042C00018461037BD4680BD0000484380B586B013
:1042D00000AF78607B6803F11C0007F11402012332
:1042E000232100F055FE0346002B02D04FF0FF3390
:1042F0006EE03B7D6FF345133B757B6803F11C005B
:1043000007F114020123232100F05AFE0346002B7B
:1043100002D04FF0FF335BE07B6803F11C0007F134
:1043200010020123242100F033FE0346002B02D0AB
:104330004FF0FF334CE03B7C03F04003DBB2002B3B
:104340002DD13B7D03F02003DBB2002B27D13B7D39
:1043500023F07F03DBB2002B21D17B6803F11C002B
:1043600007F10C0201233F2100F012FE0346002B4F
:1043700002D04FF0FF332BE03B7B6FF345133B73D1
:104380007B6803F11C0007F10C0201233F2100F0C0
:1043900017FE0346002B02D04FF0FF3318E07B6876
:1043A0001C330021184602F0A0F80346002B02D06F
:1043B0004FF0FF330CE07B681C330021184602F0FD
:1043C000D3F80346002B02D04FF0FF3300E0002368
:1043D00018461837BD4680BD80B582B000AF786002
:1043E0000B46FB707B681C33FA781146184602F0C6
:1043F0007CF80346002B02D04FF0FF3300E000238F
:1044000018460837BD4680BD80B582B000AF7860E1
:104410000B46FB707B681C33FA781146184602F095
:10442000A3F80346002B02D04FF0FF3300E0002337
:1044300018460837BD4680BD80B584B000AF7860AF
:104440000023FB609FED280A7868FFF781FC034694
:10445000002B02D04FF0FF3342E002217868FFF7D3
:10446000F1FC0346002B02D04FF0FF3338E07B68AD
:104470001C330121184602F086F90346002B02D0B6
:104480004FF0FF332CE07B681C330121184602F00B
:10449000F7F80346002B02D04FF0FF3320E07B6893
:1044A0001C3307F108021146184601F0CEFF0346FF
:1044B000002B02D04FF0FF3312E03B7A43F0400371
:1044C0003B727B681C3307F108021146184601F065
:1044D00055FF0346002B02D04FF0FF3300E0FB688E
:1044E00018461037BD4680BD0000484280B586B0F2
:1044F00000AF78607B6803F11C0007F11002012314
:10450000242100F045FD0346002B02D04FF0FF337D
:104510006EE03B7C6FF386133B747B6803F11C00F9
:1045200007F110020123242100F04AFD0346002B6D
:1045300002D04FF0FF335BE07B6803F11C0007F112
:1045400014020123232100F023FD0346002B02D097
:104550004FF0FF334CE03B7C03F04003DBB2002B19
:104560002DD13B7D03F02003DBB2002B27D13B7D17
:1045700023F07F03DBB2002B21D17B6803F11C0009
:1045800007F10C0201233F2100F002FD0346002B3E
:1045900002D04FF0FF332BE03B7B6FF345133B73AF
:1045A0007B6803F11C0007F10C0201233F2100F09E
:1045B00007FD0346002B02D04FF0FF3318E07B6865
:1045C0001C330021184602F05BF80346002B02D092
:1045D0004FF0FF330CE07B681C330021184602F0DB
:1045E000D2F80346002B02D04FF0FF3300E0002347
:1045F00018461837BD4680BD80B582B000AF7860E0
:104600000B46FB707B681C33FA781146184602F0A3
:10461000BAF80346002B02D04FF0FF3300E000232E
:1046200018460837BD4680BD80B584B000AF7860BD
:104630000023FB609FED220A7868FFF789FB0346A1
:10464000002B02D04FF0FF3336E002217868FFF7ED
:10465000F9FB0346002B02D04FF0FF332CE07B68C0
:104660001C330221184602F0CEFB0346002B02D079
:104670004FF0FF3320E07B681C3307F1080211463E
:10468000184601F06AFE0346002B02D04FF0FF33BC
:1046900012E03B7A43F080033B727B681C3307F1E6
:1046A00008021146184601F0EEFD0346002B02D029
:1046B0004FF0FF3300E0FB6818461037BD4680BD61
:1046C0000000484380B586B000AF78607B6803F196
:1046D0001C0007F114020123232100F059FC0346BA
:1046E000002B02D04FF0FF3362E03B7D6FF3C71326
:1046F0003B757B6803F11C0007F1140201232321A1
:1047000000F05EFC0346002B02D04FF0FF334FE079
:104710007B6803F11C0007F110020123242100F043
:1047200037FC0346002B02D04FF0FF3340E03B7CC8
:1047300003F04003DBB2002B2DD13B7D03F02003BF
:10474000DBB2002B27D13B7D23F07F03DBB2002BB4
:1047500021D17B6803F11C0007F10C0201233F21EA
:1047600000F016FC0346002B02D04FF0FF331FE091
:104770003B7B6FF345133B737B6803F11C0007F130
:104780000C0201233F2100F01BFC0346002B02D04A
:104790004FF0FF330CE07B681C330021184602F019
:1047A00032FB0346002B02D04FF0FF3300E0002322
:1047B00018461837BD4680BD80B582B000AF78601E
:1047C0000B46FB70FB78032B02D94FF0FF330DE053
:1047D0007B681C33FA781146184602F014FB034636
:1047E000002B02D04FF0FF3300E0002318460837BB
:1047F000BD4680BD80B584B000AF786039607B680D
:1048000003F11C0007F10C0201233A2100F0C0FB68
:104810000346002B02D04FF0FF3307E03B7BC3F38E
:104820000003DBB21A463B681A70002318461037A3
:10483000BD4680BD80B584B000AF786039607B68CC
:1048400003F11C0007F10C0201233A2100F0A0FB48
:104850000346002B02D04FF0FF3307E03B7BC3F34E
:104860004003DBB21A463B681A7000231846103723
:10487000BD4680BD80B584B000AF786039607B688C
:1048800003F11C0007F10C0201233A2100F080FB28
:104890000346002B02D04FF0FF3307E03B7BC3F30E
:1048A0008003DBB21A463B681A70002318461037A3
:1048B000BD4680BD80B584B000AF786039607B684C
:1048C00003F11C0007F10C0201233A2100F060FB08
:1048D0000346002B02D04FF0FF3307E03B7BC3F3CE
:1048E000C003DBB21A463B681A7000231846103723
:1048F000BD4680BD80B584B000AF786039607B680C
:1049000003F11C0007F10C0201233A2100F040FBE7
:104910000346002B02D04FF0FF3307E03B7BC3F38D
:104920000013DBB21A463B681A7000231846103792
:10493000BD4680BD80B584B000AF786039607B68CB
:1049400003F11C0007F10C0201233A2100F020FBC7
:104950000346002B02D04FF0FF3307E03B7BC3F34D
:104960004013DBB21A463B681A7000231846103712
:10497000BD4680BD80B586B000AF78603960042246
:104980000021386835F00BFD7B6803F11C0007F14E
:1049900014020123272100F0FBFA0346002B02D06A
:1049A0004FF0FF3351E07B6803F11C0007F1100268
:1049B0000123232100F0ECFA0346002B02D04FF034
:1049C000FF3342E07B6803F11C0007F10C02012376
:1049D000242100F0DDFA0346002B02D04FF0FF3314
:1049E00033E03B7C03F02003DBB2002B0AD03B7D9D
:1049F00003F04003DBB2002B04D03A68137843F095
:104A0000080313703B7C23F07F03DBB2002B0AD03A
:104A10003B7D03F00403DBB2002B04D03A6813782B
:104A200043F0400313703B7B03F04003DBB2002BE9
:104A30000AD03B7D03F02003DBB2002B04D03A68A0
:104A4000137843F080031370002318461837BD46CF
:104A500080BD80B584B000AF78600B46FB70FB78FA
:104A6000022B02D94FF0FF3319E0FB78002B06D060
:104A7000FB78012B01D1012302E0022300E0002397
:104A8000FB737B681C33FA7B1146184601F06EF805
:104A90000346002B02D04FF0FF3300E000231846FE
:104AA0001037BD4680BD80B582B000AF78603960F8
:104AB0007B681C333968184600F03FFE0346002B24
:104AC00002D04FF0FF3300E0002318460837BD4600
:104AD00080BD80B483B000AF786039607B68002B04
:104AE00002D14FF0FF3305E07B6893F828203B6844
:104AF0001A70002318460C37BD465DF8047B7047DA
:104B000080B584B000AF786039607B6803F11C0029
:104B100007F10C0201232F2100F03AFA0346002B83
:104B200002D04FF0FF3311E03B7B03F03F03DBB2D9
:104B3000202B03D13B6820221A8006E03B7BC3F385
:104B40000503DBB29AB23B681A800023184610377F
:104B5000BD4680BD80B584B000AF78600B46FB7069
:104B60000023FB60FB78062B10D801A252F823F03B
:104B7000954B0008954B00088D4B0008954B00089D
:104B8000954B00088D4B0008954B00084FF0FF3304
:104B9000FB6000E000BFFB68B3F1FF3F01D1FB68A1
:104BA0000DE07B681C33FA781146184602F02DFBA5
:104BB0000346002B02D04FF0FF3300E0FB6818469D
:104BC0001037BD4680BD00BF80B586B000AFF8602D
:104BD00087ED020A0B46FB711346BB71FB79013B63
:104BE000032B0BD801A252F823F000BF294C000878
:104BF000554C0008814C0008AD4C0008BB79012BD6
:104C000002D00423FB7502E01423FB7500BFD7ED2F
:104C1000027AB2EE097AF4EEC77AF1EE10FA00D415
:104C20005AE06F4BBB6057E0BB79012B02D00323E6
:104C3000FB7502E01323FB7500BFD7ED027A9FEDF1
:104C4000697AF4EEC77AF1EE10FA00DC44E0664BC4
:104C5000BB6041E0BB79012B02D00223FB7502E06F
:104C60001223FB7500BFD7ED027A9FED5E7AF4EE5A
:104C7000C77AF1EE10FA00DC2EE05B4BBB602BE054
:104C8000BB79012B02D00123FB7502E01123FB75D8
:104C900000BFD7ED027A9FED537AF4EEC77AF1EEBA
:104CA00010FA00DC18E0504BBB6015E0BB79012B1B
:104CB00002D00023FB7502E01023FB7500BFD7ED87
:104CC000027A9FED487AF4EEC77AF1EE10FA00DC32
:104CD00001E0454BBB6000BFD7ED027A9FED437A00
:104CE000F4EEC77AF1EE10FA01D801234DE0D7EDCA
:104CF000027AB2EE097AF4EEC77AF1EE10FA01D830
:104D0000022342E0D7ED027AB3EE097AF4EEC77AD5
:104D1000F1EE10FA01D8032337E0D7ED027A9FEDC8
:104D2000347AF4EEC77AF1EE10FA01D804232CE0BD
:104D3000D7ED027A9FED2F7AF4EEC77AF1EE10FAF2
:104D400001D8052321E0D7ED027A9FED267AF4EE13
:104D5000C77AF1EE10FA01D8062316E0D7ED027AF1
:104D60009FED257AF4EEC77AF1EE10FA01D8072309
:104D70000BE0D7ED027A9FED217AF4EEC77AF1EEDF
:104D800010FA01D8082300E00923BB75FB681C3327
:104D9000BA7D1146184600F011FB0346002B02D0E5
:104DA0004FF0FF3318E0FB681C33FA7D11461846BC
:104DB00000F0FAF90346002B02D04FF0FF330BE06E
:104DC000FB68BA68DA62FB68FA7983F83020FB681E
:104DD000BA7983F83120002318461837BD4680BDC4
:104DE000000048410000484300004843CDCCCC3F80
:104DF000000048420000C8420000C8430000484488
:104E000080B485B000AFF86087ED020A0B46FB71F5
:104E10001346BB71FB68FA7983F83020FB68BA79D6
:104E200083F83120D7ED027A9FED2F7AF4EEC77A1E
:104E3000F1EE10FA01D82D4B4DE0D7ED027AB2EE2B
:104E4000097AF4EEC77AF1EE10FA01D8284B42E065
:104E5000D7ED027AB3EE097AF4EEC77AF1EE10FAE2
:104E600001D8244B37E0D7ED027A9FED237AF4EE98
:104E7000C77AF1EE10FA01D8204B2CE0D7ED027A78
:104E80009FED1F7AF4EEC77AF1EE10FA01D81D4BB0
:104E900021E0D7ED027A9FED1C7AF4EEC77AF1EEAD
:104EA00010FA01D8194B16E0D7ED027A9FED187A67
:104EB000F4EEC77AF1EE10FA01D8164B0BE0D7EDFD
:104EC000027A9FED157AF4EEC77AF1EE10FA01D866
:104ED000124B00E0124BFA68D362002318461437D5
:104EE000BD465DF8047B7047CDCCCC3FCDCCCC3FEC
:104EF000000048410000C84100004842000048420C
:104F00000000C8420000C842000048430000484377
:104F10000000C8430000C843000048440000484463
:104F20000000C84490B587B000AFF8607A601A46B8
:104F30000B46FB7213463B81FB687B617B695C69B6
:104F40007B691B7B98B2FB7A99B23B897A68A04750
:104F5000034618461C37BD4690BD90B587B000AFDC
:104F6000F8607A601A460B46FB7213463B81FB6879
:104F70007B617B691C697B691B7B98B2FB7A99B268
:104F80003B897A68A047034618461C37BD4690BD4A
:104F900090B587B000AFF8607A601A460B46FB7296
:104FA00013463B81FB685C68FB6898683B89F97A2B
:104FB0007A68A04778617B6918461C37BD4690BD6A
:104FC00090B587B000AFF8607A601A460B46FB7266
:104FD00013463B81FB681C68FB6898683B89F97A3B
:104FE0007A68A04778617B6918461C37BD4690BD3A
:104FF00080B483B000AF0346FB80B7F9063007EEFC
:10500000903AF8EEE77A9FED057A67EE877AB0EE90
:10501000670A0C37BD465DF8047B704723DB793D9A
:1050200080B483B000AF0346FB80B7F9063007EECB
:10503000903AF8EEE77A9FED057A67EE877AB0EE60
:10504000670A0C37BD465DF8047B704723DBF93DEA
:1050500080B483B000AF0346FB80B7F9063007EE9B
:10506000903AF8EEE77A9FED057A67EE877AB0EE30
:10507000670A0C37BD465DF8047B704723DB793E39
:1050800080B483B000AF0346FB80B7F9063007EE6B
:10509000903AF8EEE77A9FED057A67EE877AB0EE00
:1050A000670A0C37BD465DF8047B704723DBF93E89
:1050B00080B483B000AF0346FB80B7F9063007EE3B
:1050C000903AF8EEE77A9FED057A67EE877AB0EED0
:1050D000670A0C37BD465DF8047B704723DB793DDA
:1050E00080B483B000AF0346FB80B7F9063007EE0B
:1050F000903AF8EEE77A9FED057A67EE877AB0EEA0
:10510000670A0C37BD465DF8047B704723DBF93D29
:1051100080B483B000AF0346FB80B7F9063007EEDA
:10512000903AF8EEE77A9FED057A67EE877AB0EE6F
:10513000670A0C37BD465DF8047B704723DB793E78
:1051400080B483B000AF0346FB80B7F9063007EEAA
:10515000903AF8EEE77A9FED057A67EE877AB0EE3F
:10516000670A0C37BD465DF8047B704723DBF93EC8
:1051700080B483B000AF0346FB80B7F9063007EE7A
:10518000903AB8EEE77ADFED076AC7EE267AB3EE1B
:10519000097A77EE877AB0EE670A0C37BD465DF87C
:1051A000047B70470000804380B586B000AF786014
:1051B0000B46FB7007F11002012320217868FFF7EE
:1051C000E7FE78617B69002B19D1FB789B08DBB285
:1051D00003F00303DAB23B7C62F383033B74FB7896
:1051E00003F00303DAB23B7C62F301033B7407F183
:1051F0001002012320217868FFF7E2FE78617B69C5
:10520000002B07D107F10C02012325217868FFF755
:10521000BFFE78617B69002B11D1FB781B09DBB2E3
:1052200003F00103DAB23B7B62F382033B7307F1C5
:105230000C02012325217868FFF7C2FE78617B69A3
:1052400018461837BD4680BD80B586B000AF78607F
:10525000396007F11002012320217868FFF798FEDA
:1052600078617B69002B40F0A38007F10C020123D9
:1052700025217868FFF78CFE78613B7BC3F38003C0
:10528000DBB21A013B7CC3F38103DBB29B00134406
:105290003A7CC2F30102D2B213441B2B00F2848089
:1052A00001A252F823F000BF39530008315300081F
:1052B000295300082153000819530008A953000876
:1052C000A9530008A9530008595300085153000876
:1052D0004953000841530008A9530008A953000886
:1052E000A9530008A9530008815300087953000806
:1052F000715300086953000861530008A95300085E
:10530000A9530008A9530008A153000899530008A5
:1053100091530008895300083B6804221A7047E043
:105320003B6803221A7043E03B6802221A703FE098
:105330003B6801221A703BE03B6800221A7037E09C
:105340003B680B221A7033E03B680A221A702FE088
:105350003B6809221A702BE03B6808221A7027E08C
:105360003B6814221A7023E03B6813221A701FE076
:105370003B6812221A701BE03B6811221A7017E07A
:105380003B6810221A7013E03B681B221A700FE072
:105390003B681A221A700BE03B6819221A7007E06A
:1053A0003B6818221A7003E03B6804221A7000BFA1
:1053B0007B6918461837BD4680BD00BF80B586B0F2
:1053C00000AF78600B46FB7007F11002012320212B
:1053D0007868FFF7DDFD78617B69002B0FD1FB78E2
:1053E00003F00F03DAB23B7C62F307133B7407F15F
:1053F0001002012320217868FFF7E2FD78617B69C4
:10540000002B07D107F10C02012322217868FFF756
:10541000BFFD78617B69002B11D1FB781B09DBB2E2
:1054200003F00303DAB23B7B62F301033B7307F142
:105430000C02012322217868FFF7C2FD78617B69A5
:1054400018461837BD4680BD80B586B000AF78607D
:10545000396007F11002012320217868FFF798FDD9
:1054600078617B69002B40F0B38007F10C020123C7
:1054700022217868FFF78CFD78613B7BC3F3010341
:10548000DBB21B013A7CC2F30312D2B21344322BBB
:1054900000F29A8001A252F823F000BF695500087B
:1054A0007155000879550008815500088955000894
:1054B0009155000899550008A1550008A955000804
:1054C000B1550008C9550008C9550008C95500085C
:1054D000C9550008C9550008C9550008C955000834
:1054E000C9550008C1550008C9550008C95500082C
:1054F000C9550008C9550008C9550008C955000814
:10550000C9550008C9550008C9550008C955000803
:10551000C9550008C9550008C9550008C9550008F3
:10552000C9550008C9550008C9550008C9550008E3
:10553000C9550008C9550008C9550008C9550008D3
:10554000C9550008C9550008C9550008C9550008C3
:10555000C9550008C9550008C9550008C9550008B3
:10556000C9550008B95500083B6800221A702FE0A1
:105570003B6801221A702BE03B6802221A7027E078
:105580003B6803221A7023E03B6804221A701FE074
:105590003B6805221A701BE03B6806221A7017E070
:1055A0003B6807221A7013E03B6808221A700FE06C
:1055B0003B6809221A700BE03B6832221A7007E040
:1055C0003B6812221A7003E03B6800221A7000BF89
:1055D0007B6918461837BD4680BD00BF80B584B0D2
:1055E00000AF78600B46FB7007F108020123212110
:1055F0007868FFF7CDFCF860FB68002B0FD1FB78D3
:1056000003F00103DAB23B7A62F3C3033B7207F1A2
:105610000802012321217868FFF7D2FCF860FB68BB
:1056200018461037BD4680BD80B584B000AF7860A5
:10563000396007F10802012321217868FFF7A8FCEF
:10564000F8603B7AC3F3C003DBB21A463B681A70BA
:10565000FB6818461037BD4680BD80B584B000AFEA
:1056600078600B46FB7007F108020123252178685A
:10567000FFF78EFCF860FB68002B0FD1FB7803F07E
:105680000303DAB23B7A62F305133B7207F10802B7
:10569000012325217868FFF793FCF860FB68184622
:1056A0001037BD4680BD000080B584B000AF786083
:1056B000396007F10802012325217868FFF768FCAB
:1056C000F8603B7AC3F30113DBB2032B1AD801A2B3
:1056D00052F823F0E5560008ED560008F55600088C
:1056E000FD5600083B6800221A700FE03B6801225B
:1056F0001A700BE03B6802221A7007E03B68032235
:105700001A7003E03B6800221A7000BFFB6818465D
:105710001037BD4680BD00BF80B584B000AF786053
:10572000396001233A6827217868FFF731FCF86077
:10573000FB6818461037BD4680BD80B584B000AF09
:105740007860396007F10802012327217868FFF7A4
:105750001FFCF8603B7AC3F30003DBB21A463B68D8
:105760001A70FB6818461037BD4680BD80B584B0FE
:1057700000AF7860396005233A6837217868FFF711
:1057800007FCF860FB6818461037BD4680BD80B541
:1057900084B000AF7860396001233A683C217868B2
:1057A000FFF70EFCF860FB6818461037BD4680BD59
:1057B00080B584B000AF7860396001233A683C213D
:1057C0007868FFF7E5FBF860FB6818461037BD46C0
:1057D00080BD80B584B000AF7860396001233A683D
:1057E0003D217868FFF7ECFBF860FB68184610373E
:1057F000BD4680BD80B584B000AF786039600123BC
:105800003A683D217868FFF7C3FBF860FB681846EB
:105810001037BD4680BD80B584B000AF7860396078
:1058200001233A683E217868FFF7CAFBF860FB68FD
:1058300018461037BD4680BD80B584B000AF786093
:10584000396001233A683E217868FFF7A1FBF860D0
:10585000FB6818461037BD4680BD80B584B000AFE8
:1058600078600B46FB7007F1080201233F2178683E
:10587000FFF78EFBF860FB68002B0FD1FB7803F07D
:105880000103DAB23B7A62F382033B7207F108024A
:1058900001233F217868FFF793FBF860FB68184607
:1058A0001037BD4680BD80B584B000AF78603960E8
:1058B00007F1080201233F217868FFF769FBF860D0
:1058C0003B7AC3F38003DBB2002B02D0012B04D060
:1058D00007E03B6800221A7007E03B6801221A705B
:1058E00003E03B6800221A7000BFFB6818461037BF
:1058F000BD4680BD80B584B000AF7860396007F1E7
:10590000080202230D217868FFF742FBF8607B7ADA
:105910001AB23B681A803B68B3F900309BB21B0295
:105920009AB23B7A9BB213449BB21AB23B681A807C
:10593000FB6818461037BD4680BD80B586B000AF05
:105940007860396007F10C02062328217868FFF798
:105950001FFB78617B7B1AB23B681A803B68B3F906
:1059600000309BB21B029AB23B7B9BB213449BB2AA
:105970001AB23B681A803B680233FA7B12B21A8073
:105980003B6802333A680232B2F9002092B2120246
:1059900091B2BA7B92B20A4492B212B21A803B68B8
:1059A00004337A7C12B21A803B6804333A680432BA
:1059B000B2F9002092B2120291B23A7C92B20A4439
:1059C00092B212B21A807B6918461837BD4680BD64
:1059D00080B584B000AF7860396001233A680F2148
:1059E0007868FFF7D5FAF860FB6818461037BD46AF
:1059F00080BD80B584B000AF78600B46FB7007F1C6
:105A00000802012321217868FFF7C2FAF860FB68D9
:105A1000002B0FD1FB7803F00103DAB23B7A62F37B
:105A200082033B7207F10802012321217868FFF706
:105A3000C7FAF860FB6818461037BD4680BD80B5D0
:105A400084B000AF7860396007F10802012321219A
:105A50007868FFF79DFAF8603B7AC3F38003DBB206
:105A60001A463B681A70FB6818461037BD4680BD61
:105A700080B584B000AF78600B46FB7007F1080278
:105A8000012321217868FFF783FAF860FB68002B77
:105A90000FD1FB7803F00103DAB23B7A62F386138D
:105AA0003B7207F10802012321217868FFF788FA89
:105AB000F860FB6818461037BD4680BD80B584B0DD
:105AC00000AF7860396007F108020123212178686E
:105AD000FFF75EFAF8603B7AC3F38013DBB21A4635
