:020000040800F2
:1000000000800120712903085D1800086B180008A2
:1000100071180008771800087D180008000000001B
:10002000000000000000000000000000831800082D
:1000300091180008000000009F180008AD18000883
:10004000C1290308C1290308C1290308C1290308DC
:10005000C1290308C1290308B9180008C7180008F6
:10006000C1290308C1290308D5180008C1290308BC
:10007000C1290308C1290308C1290308C1290308AC
:10008000E3180008C1290308C12903080000000083
:10009000000000000000000000000000F11800084F
:1000A000C129030805190008C1290308C12903084B
:1000B000C1290308C1290308C1290308C12903086C
:1000C000C1290308C1290308C1290308C12903085C
:1000D000C1290308C12903081919000800000000FC
:1000E0002D190008C1290308C129030800000000D8
:1000F000000000000000000000000000C12903080B
:1001000000000000C1290308C1290308C129030810
:1001100000000000000000000000000000000000DF
:10012000C1290308C1290308C1290308C1290308FB
:10013000C1290308000000000000000000000000CA
:10014000000000000000000000000000C1290308BA
:10015000C1290308C1290308C1290308C1290308CB
:10016000C1290308C12903080000000000000000A5
:10017000000000000000000000000000000000007F
:1001800000000000C129030800000000000000007A
:04019000C129030876
:1001A00010B5054C237833B9044B13B10448AFF3B1
:1001B00000800123237010BDB00800200000000063
:1001C000944B030808B5034B1BB103490348AFF335
:1001D000008008BD00000000B4080020944B030814
:1001E000F853030800000020B0080020B0080020E9
:1001F000901D0020034613F8012B002AFBD1181A8A
:1002000001387047000000000000000000000000FE
:1002100001F0FF01102A2BDB10F0070F08D010F8B7
:10022000013B013A8B422DD010F0070F42B3F6D1BB
:10023000F0B441EA012141EA014122F007047FF0D4
:1002400000070023F0E80256083C85EA010586EA2B
:10025000010685FA47F5A3FA87F586FA47F6A5FA67
:1002600087F68EB9EED1F0BC01F0FF0102F0070273
:1002700032B110F8013B013A83EA010313B1F8D11E
:100280000020704701387047002D06BF35460338FF
:10029000073815F0010F07D1013015F4807F02BF38
:1002A000013015F4C03F0130F0BC0138704700BF89
:1002B00081F0004102E000BF83F0004330B54FEA17
:1002C00041044FEA430594EA050F08BF90EA020F84
:1002D0001FBF54EA000C55EA020C7FEA645C7FEA17
:1002E000655C00F0E2804FEA5454D4EB5555B8BF3A
:1002F0006D420CDD2C4480EA020281EA030382EAAB
:10030000000083EA010180EA020281EA0303362D3C
:1003100088BF30BD11F0004F4FEA01314FF4801C0F
:100320004CEA113102D0404261EB410113F0004F21
:100330004FEA03334CEA133302D0524263EB4303D8
:1003400094EA050F00F0A780A4F10104D5F1200E76
:100350000DDB02FA0EFC22FA05F2801841F10001D1
:1003600003FA0EF2801843FA05F359410EE0A5F1A5
:1003700020050EF1200E012A03FA0EFC28BF4CF0D6
:10038000020C43FA05F3C01851EBE37101F000458C
:1003900007D54FF0000EDCF1000C7EEB00006EEB99
:1003A0000101B1F5801F1BD3B1F5001F0CD3490823
:1003B0005FEA30004FEA3C0C04F101044FEA44527A
:1003C00012F5800F80F09A80BCF1004F08BF5FEA01
:1003D000500C50F1000041EB045141EA050130BDE1
:1003E0005FEA4C0C404141EB010111F4801FA4F184
:1003F0000104E9D191F0000F04BF01460020B1FAD9
:1004000081F308BF2033A3F10B03B3F120020CDA10
:100410000C3208DD02F1140CC2F10C0201FA0CF0EE
:1004200021FA02F10CE002F11402D8BFC2F1200C53
:1004300001FA02F120FA0CFCDCBF41EA0C01904009
:10044000E41AA2BF01EB0451294330BD6FEA040452
:100450001F3C1CDA0C340EDC04F11404C4F120023D
:1004600020FA04F001FA02F340EA030021FA04F34F
:1004700045EA030130BDC4F10C04C4F1200220FAA6
:1004800002F001FA04F340EA0300294630BD21FAE4
:1004900004F0294630BD94F0000F83F4801306BFAA
:1004A00081F480110134013D4EE77FEA645C18BF9E
:1004B0007FEA655C29D094EA050F08BF90EA020F35
:1004C00005D054EA000C04BF1946104630BD91EA2D
:1004D000030F1EBF0021002030BD5FEA545C05D130
:1004E0004000494128BF41F0004130BD14F580046F
:1004F0003CBF01F5801130BD01F0004545F0FE41E3
:1005000041F470014FF0000030BD7FEA645C1ABF17
:10051000194610467FEA655C1CBF0B46024650EA4E
:10052000013406BF52EA033591EA030F41F400217A
:1005300030BD00BF90F0000F04BF0021704730B500
:100540004FF4806404F132044FF000054FF00001D5
:1005500050E700BF90F0000F04BF0021704730B596
:100560004FF4806404F1320410F0004548BF40426B
:100570004FF000013EE700BF42004FEAE2014FEAC0
:1005800031014FEA02701FBF12F07F4393F07F4F9B
:1005900081F06051704792F0000F14BF93F07F4FCD
:1005A000704730B54FF4607401F0004521F0004110
:1005B00020E700BF50EA010208BF704730B54FF096
:1005C00000050AE050EA010208BF704730B511F09B
:1005D000004502D5404261EB41014FF4806404F1D3
:1005E00032045FEA915C3FF4DCAE4FF003025FEA55
:1005F000DC0C18BF03325FEADC0C18BF033202EBDD
:10060000DC02C2F1200300FA03FC20FA02F001FA36
:1006100003FE40EA0E0021FA02F11444C1E600BFD5
:1006200070B54FF0FF0C4CF4E06C1CEA11541DBF88
:100630001CEA135594EA0C0F95EA0C0F00F0DEF853
:100640002C4481EA030621EA4C5123EA4C5350EA38
:10065000013518BF52EA033541F4801143F4801389
:1006600038D0A0FB02CE4FF00005E1FB02E506F01A
:100670000042E0FB03E54FF00006E1FB03569CF06F
:10068000000F18BF4EF0010EA4F1FF04B6F5007F75
:1006900064F5407404D25FEA4E0E6D4146EB0606E7
:1006A00042EAC62141EA55514FEAC52040EA5E5070
:1006B0004FEACE2EB4F1FD0C88BFBCF5E06F1ED81A
:1006C000BEF1004F08BF5FEA500E50F1000041EB51
:1006D000045170BD06F0004646EA010140EA0200FE
:1006E00081EA0301B4EB5C04C2BFD4EB0C0541EA20
:1006F000045170BD41F480114FF0000E013C00F335
:10070000AB8014F1360FDEBF002001F0004170BD58
:10071000C4F10004203C35DA0C341BDC04F1140471
:10072000C4F1200500FA05F320FA04F001FA05F2FD
:1007300040EA020001F0004221F0004110EBD370CA
:1007400021FA04F642EB06015EEA430E08BF20EAF6
:10075000D37070BDC4F10C04C4F1200500FA04F399
:1007600020FA05F001FA04F240EA020001F000412B
:1007700010EBD37041F100015EEA430E08BF20EA9E
:10078000D37070BDC4F1200500FA05F24EEA020EE6
:1007900020FA04F301FA05F243EA020321FA04F015
:1007A00001F0004121FA04F220EA020000EBD370CC
:1007B0005EEA430E08BF20EAD37070BD94F0000FCC
:1007C0000FD101F00046400041EB010111F4801F00
:1007D00008BF013CF7D041EA060195F0000F18BFB1
:1007E000704703F00046520043EB030313F4801FED
:1007F00008BF013DF7D043EA0603704794EA0C0FA7
:100800000CEA135518BF95EA0C0F0CD050EA4106BC
:1008100018BF52EA4306D1D181EA030101F0004139
:100820004FF0000070BD50EA410606BF1046194661
:1008300052EA430619D094EA0C0F02D150EA01366D
:1008400013D195EA0C0F05D152EA03361CBF1046AE
:1008500019460AD181EA030101F0004141F0FE414D
:1008600041F470014FF0000070BD41F0FE4141F4D1
:10087000780170BD70B54FF0FF0C4CF4E06C1CEAD1
:1008800011541DBF1CEA135594EA0C0F95EA0C0F86
:1008900000F0A7F8A4EB050481EA030E52EA033541
:1008A0004FEA013100F088804FEA03334FF0805562
:1008B00045EA131343EA12634FEA022245EA11158F
:1008C00045EA10654FEA00260EF000419D4208BF40
:1008D000964244F1FD0404F5407402D25B084FEAED
:1008E0003202B61A65EB03055B084FEA32024FF499
:1008F00080104FF4002CB6EB020E75EB030E22BFF6
:10090000B61A754640EA0C005B084FEA3202B6EBB5
:10091000020E75EB030E22BFB61A754640EA5C0064
:100920005B084FEA3202B6EB020E75EB030E22BFF4
:10093000B61A754640EA9C005B084FEA3202B6EBF5
:10094000020E75EB030E22BFB61A754640EADC00B4
:1009500055EA060E18D04FEA051545EA16754FEA16
:1009600006164FEAC30343EA52734FEAC2025FEA34
:100970001C1CC0D111F4801F0BD141EA00014FF0C3
:1009800000004FF0004CB6E711F4801F04BF014394
:100990000020B4F1FD0C88BFBCF5E06F3FF6AFAEB0
:1009A000B5EB030C04BFB6EB020C5FEA500C50F140
:1009B000000041EB045170BD0EF0004E4EEA1131C3
:1009C00014EB5C04C2BFD4EB0C0541EA045170BDCA
:1009D00041F480114FF0000E013C90E645EA060E0E
:1009E0008DE60CEA135594EA0C0F08BF95EA0C0F3C
:1009F0003FF43BAF94EA0C0F0AD150EA01347FF484
:100A000034AF95EA0C0F7FF425AF104619462CE75A
:100A100095EA0C0F06D152EA03353FF4FDAE1046BD
:100A2000194622E750EA410618BF52EA43067FF40E
:100A3000C5AE50EA41047FF40DAF52EA43057FF49E
:100A4000EBAE12E74FF0FF3C06E000BF4FF0010CA9
:100A500002E000BF4FF0010C4DF804CD4FEA410C0D
:100A60007FEA6C5C4FEA430C18BF7FEA6C5C1BD0DA
:100A700001B050EA410C0CBF52EA430C91EA030F5B
:100A800002BF90EA020F0020704710F1000F91EAB8
:100A9000030F58BF994208BF90422CBFD8176FEA86
:100AA000E37040F0010070474FEA410C7FEA6C5C54
:100AB00002D150EA013C07D14FEA430C7FEA6C5C5B
:100AC000D6D152EA033CD3D05DF8040B704700BF87
:100AD0008446104662468C461946634600E000BFD5
:100AE00001B5FFF7B7FF002848BF10F1000F01BDA7
:100AF0004DF808EDFFF7F4FF0CBF012000205DF872
:100B000008FB00BF4DF808EDFFF7EAFF34BF0120F6
:100B100000205DF808FB00BF4DF808EDFFF7E0FF8F
:100B200094BF012000205DF808FB00BF4DF808EDE0
:100B3000FFF7CEFF94BF012000205DF808FB00BF47
:100B40004DF808EDFFF7C4FF34BF012000205DF829
:100B500008FB00BF4FEA410C7FEA6C5C02D150EA0F
:100B6000013C0AD14FEA430C7FEA6C5C02D152EAA5
:100B7000033C02D14FF0000070474FF00100704776
:100B80004FEA410212F5001215D211D56FF47873B5
:100B9000B3EB625212D94FEAC12343F0004343EA58
:100BA000505311F0004F23FA02F018BF4042704733
:100BB0004FF00000704750EA013005D111F00040BD
:100BC00008BF6FF0004070474FF00000704700BF53
:100BD0004A0011D212F5001211D20DD56FF47873BC
:100BE000B3EB62520ED44FEAC12343F0004343EA11
:100BF000505323FA02F070474FF00000704750EA5C
:100C0000013002D14FF0FF3070474FF000007047C5
:100C10004FEA4102B2F1E04324BFB3F5001CDCF11E
:100C2000FE5C0DD901F0004C4FEAC0024CEA507056
:100C3000B2F1004F40EB830008BF20F00100704785
:100C400011F0804F21D113F13872BCBF01F0004088
:100C5000704741F480114FEA5252C2F11802C2F1BA
:100C6000200C10FA0CF320FA02F018BF40F001003B
:100C70004FEAC1234FEAD32303FA0CFC40EA0C00ED
:100C800023FA02F34FEA4303CCE77FEA625307D12A
:100C900050EA01331EBF4FF0FE4040F44000704761
:100CA00001F0004040F0FE4040F40000704700BFFB
:100CB00053B94AB9002908BF00281CBF4FF0FF31C3
:100CC0004FF0FF3000F07AB9ADF1080C6DE904CEB9
:100CD00000F006F8DDF804E0DDE9022304B0704717
:100CE0002DE9F0478C460D460446089E002B51D155
:100CF0008A4217466DD9B2FA82FEBEF1000F0BD0C0
:100D0000CEF1200C01FA0EF520FA0CFC02FA0EF7D7
:100D10004CEA050C00FA0EF44FEA174A250CBCFB0E
:100D2000FAF81FFA87F90AFB18CC45EA0C4508FBCC
:100D300009F3AB420AD9ED1908F1FF3280F02381A3
:100D4000AB4240F22081A8F102083D44ED1AA4B262
:100D5000B5FBFAF00AFB105544EA054400FB09F91B
:100D6000A14509D9E41900F1FF3380F00A81A145BA
:100D700040F2078102383C44A4EB090440EA0840F1
:100D80000021002E61D024FA0EF400233460736039
:100D9000BDE8F0878B4207D9002E54D0002186E8A9
:100DA00021000846BDE8F087B3FA83F1002940F03E
:100DB0008E80AB4202D3824200F2FA80841A65EB45
:100DC00003050120AC46002E3FD086E81010BDE898
:100DD000F08712B90127B7FBF2F7B7FA87FEBEF129
:100DE000000F34D1EB1B3A0C1FFA87FC0121B3FB37
:100DF000F2F8250C02FB183345EA03450CFB08F317
:100E0000AB4207D9ED1908F1FF3002D2AB4200F234
:100E1000D1808046ED1AA3B2B5FBF2F002FB10556B
:100E200043EA05440CFB00FCA44507D9E41900F192
:100E3000FF3302D2A44500F2B8801846A4EB0C049C
:100E400040EA08409DE731463046BDE8F087CEF1E4
:100E5000200405FA0EF307FA0EF720FA04F83A0C0C
:100E600025FA04F448EA0308B4FBF2F14FEA184506
:100E700002FB11441FFA87FC45EA044501FB0CF311
:100E8000AB4200FA0EF409D9ED1901F1FF3080F000
:100E90008A80AB4240F2878002393D44EB1A1FFA48
:100EA00088F5B3FBF2F002FB103345EA034500FB83
:100EB0000CF3AB4207D9ED1900F1FF386FD2AB420A
:100EC0006DD902383D44EB1A40EA01418FE7C1F188
:100ED000200722FA07F88B4005FA01F448EA0303D9
:100EE00020FA07FE4FEA134CFD404EEA040EB5FB14
:100EF000FCF94FEA1E440CFB19551FFA83F844EA2B
:100F0000054509FB08F4AC4202FA01F200FA01FAC5
:100F100008D9ED1809F1FF3043D2AC4241D9A9F10B
:100F200002091D442D1B1FFA8EFEB5FBFCF00CFBC5
:100F300010554EEA054400FB08F8A04507D9E4180F
:100F400000F1FF3529D2A04527D902381C4440EAD8
:100F50000940A4EB0804A0FB02894C45C6464D4657
:100F600015D312D056B1BAEB0E0364EB050404FAA4
:100F700007F7CB401F43CC40376074600021BDE8C9
:100F8000F0871846F8E69046E0E6C245EAD2B8EBAC
:100F9000020E69EB03050138E4E72846D7E740462F
:100FA00091E78146BEE7014678E702383C4445E7D1
:100FB000084608E7A8F102083D442BE7704700BF48
:100FC00080B588B000AF07F10C0300221A605A60A8
:100FD0009A60DA601A610023BB604F4A4E4B1B6B6C
:100FE00043F0040313634C4B1B6B03F00403BB601F
:100FF000BB6800237B60484A474B1B6B43F00103EF
:101000001363454B1B6B03F001037B607B6800237C
:101010003B60414A404B1B6B43F0020313633E4B62
:101020001B6B03F002033B603B68002220213B481E
:101030001CF0A0FE4FF40053FB60394B3B610023D2
:101040007B6107F10C03194636481CF015FC02239E
:10105000FB60354B3B6100237B6107F10C031946B4
:1010600030481CF009FC2023FB6001233B61002376
:101070007B610023BB6107F10C03194627481CF074
:10108000FBFB40F23143FB60254B3B6100237B615E
:1010900007F10C03194625481CF0EEFB8023FB608A
:1010A0001F4B3B6100237B6107F10C0319461D4870
:1010B0001CF0E2FB4FF48073FB6000233B610223D2
:1010C0007B6107F10C03194614481CF0D5FB002284
:1010D0000021062019F02BF9062019F044F900220E
:1010E0000021072019F023F9072019F03CF900220C
:1010F00000210A2019F01BF90A2019F034F9002206
:101100000021172019F013F9172019F02CF900BF4E
:101110002037BD4680BD00BF0038024000000240BD
:1011200000001110000802400000211000040240DD
:1011300080B582B000AF786039607B68012B03D145
:10114000054826F06CFA02E0034826F08CFA00BF4E
:101150000837BD4680BD00BF901A0020B0B586B0EC
:1011600006AF002219491A4824F061FA00221949F1
:10117000174824F061FB174B9B781D46154B5B7895
:101180001A46144BDB781946104B1B7818460F4B48
:101190005B781C460D4B9B7804930394029001915D
:1011A00000922B460C4A4FF480610C4831F0A6FFA8
:1011B0000A48FFF71FF803469AB241F288330749FD
:1011C00007482BF022FE00BFBD46B0BD88100020AE
:1011D0001C1A0020E4110020B04B03081C1600204C
:1011E000441D002098B500AF074A084B144607CBB2
:1011F00020606160A2600121012031F019FC0248E9
:1012000031F0F4FB00BF98BD1C160020D84B03083A
:1012100080B582B000AF0346FB80FB88B3F5005F6A
:1012200002D10A4B01221A70FB88022B0AD108480E
:10123000FEF7E0FF03469AB241F2883304490548BD
:101240002BF0E3FD00BF0837BD4680BDCC08002071
:101250001C160020441D002080B582B000AF7860CD
:101260007B681B68054A934203D1202104481CF087
:101270009AFD00BF0837BD4680BD00BF0000014099
:1012800000000240F0B583B000AF18F07FFC00F022
:10129000D7F9FFF795FE00F03BFE00F065FA2DF060
:1012A00015FB00F051FA2FF0BBF9B44AB44B1046CD
:1012B000194687231A4631F075FEB048FEF79AFFAB
:1012C00003469AB241F28833AC49AE482BF09DFDFB
:1012D000AA4BAD4A14469E4604F1200C754626469C
:1012E0000FCE28606960AA60EB6010340EF1100E1A
:1012F0006445F3D17246234603CB106051601B88CE
:1013000013819E48FEF776FF03469AB241F2883376
:101310009A499C482BF079FD00237B6012E0012262
:1013200020219A481CF026FD1E2018F013FD0022F3
:10133000202196481CF01EFD1E2018F00BFD7B6836
:1013400001337B607B68132BE9DD31F0B1FB322088
:1013500018F000FD0021002031F06AFB8C4831F0CC
:1013600045FB0121002031F063FB8A4831F03EFB50
:101370000121072031F05CFB874831F037FB4FF447
:10138000FA7018F0E7FC854826F049F97B4A844B4F
:1013900015461C460FCC28606960AA60EB60238864
:1013A0002B827648FEF726FF03469AB241F2883335
:1013B000724974482BF029FD002031F0F1FB012027
:1013C00031F0EEFB022031F0EBFB002031F058FC55
:1013D000012031F055FC022031F052FC714A724B71
:1013E00015461C460FCC28606960AA60EB6007CCEC
:1013F00028616961AA6123782B77604A6B4B154697
:101400001C460FCC28606960AA60EB6020682861E8
:10141000A388AB825948FEF7EDFE03469AB241F22B
:101420008833564957482BF0F0FC61482EF08BFD6D
:10143000604B00221A605F4B1B685F4A4FF40071DB
:101440004E4831F05BFE4D48FEF7D4FE03469AB29B
:1014500041F2883349494B482BF0D7FC4FF4FA70DE
:1014600018F078FC554B1B78DBB2002B55D032209E
:1014700018F070FC00BF4FF4005151481CF062FCA2
:101480000346012BF7D1322018F064FC4B4B0022AD
:101490001A70484B1B68002B29D1464B01221A6059
:1014A000444B1B68474A4FF40071344831F026FE24
:1014B0003248FEF79FFE03469AB241F288332F4925
:1014C00030482BF0A2FC2D4A3F4B104619465B23B7
:1014D0001A4631F067FD2948FEF78CFE03469AB2A2
:1014E00041F28833254927482BF08FFC15E0314B1A
:1014F00000221A602F4B1B682F4A4FF400711F48BF
:1015000031F0FCFD1D48FEF775FE03469AB241F22C
:1015100088331A491B482BF078FC264B1B68002B9C
:101520005AD12DF0E1F91F4B284A4FF4806113483E
:1015300031F0E4FD1148FEF75DFE03469AB241F238
:1015400088330E490F482BF060FC214B1B68214A61
:101550004FF48061094831F0D1FD0848FEF74AFE9A
:1015600003469AB241F28833044906482BF04DFCF9
:101570004FF4FA7018F0EEFB30E000BF1C160020AC
:10158000E44B0308441D00206C4C0308000002409B
:10159000984C0308B04C0308B84C0308901A00207C
:1015A000C44C0308A0100020D84C0308F84C0308D2
:1015B000104D0308C8100020344D0308CC0800204B
:1015C00000080240544D03087C4D0308D84D030821
:1015D00080100020F44D03082FF000FB022110487A
:1015E0001CF0B0FB03461A460E4B1A6000220E494F
:1015F0000E4824F01CF800220D490C4824F01CF978
:101600000C4A0121022014F0D3FF0B4A01210020D3
:1016100014F0CEFF094A0121012014F0C9FF21E78F
:1016200000080240DC110020881000201C1A002055
:10163000E4110020D8110020F0120020D411002065
:1016400080B598B000AF07F1300330220021184672
:1016500031F0B3FC07F11C0300221A605A609A6053
:10166000DA601A6107F1080300221A605A609A6072
:10167000DA601A6100237B60314A314B1B6C43F006
:10168000805313642E4B1B6C03F080537B607B688C
:1016900000233B602B4A2B4B1B6823F4404343F44D
:1016A00000431360274B1B6803F440433B603B68D7
:1016B0000A233B630123FB6310233B6401237B6408
:1016C0000223BB640023FB6410233B654FF4A87323
:1016D0007B650423BB650723FB6507F130031846D0
:1016E00022F050FD0346002B01D000F039F80F2303
:1016F000FB6102233B6200237B624FF48053BB6299
:101700000023FB6207F11C030221184622F07CFF34
:101710000346002B01D000F023F80223BB604FF4F6
:1017200000737B6107F10803184623F0BDFA0346F6
:10173000002B01D000F014F800BF6037BD4680BD1B
:10174000003802400070004080B500AF0022002148
:10175000282018F0ECFD282018F005FE00BF80BD01
:1017600080B400AFFEE7000080B500AF0F4B104A19
:101770001A600E4B00225A600C4B7F229A600B4B72
:10178000FF22DA60094B00221A61084B00225A61DD
:10179000064B00229A61054823F03AFD0346002BD0
:1017A00001D0FFF7DDFF00BF80BD00BF1C1A002085
:1017B0000028004080B483B000AF78607B681B686D
:1017C000054A934202D1054B01221A6000BF0C3733
:1017D000BD465DF8047B7047002800403C0E474240
:1017E00080B483B000AF78607B681B68054A934281
:1017F00002D1054B00221A6000BF0C37BD465DF8D0
:10180000047B7047002800403C0E474280B582B000
:1018100000AF00237B60104A0F4B5B6C43F48043A6
:1018200053640D4B5B6C03F480437B607B68002347
:101830003B60094A084B1B6C43F080531364064B12
:101840001B6C03F080533B603B68072018F064FD7D
:1018500000BF0837BD4680BD0038024080B400AFED
:1018600000BFBD465DF8047B704780B400AFFEE763
:1018700080B400AFFEE780B400AFFEE780B400AFF5
:10188000FEE780B400AF00BFBD465DF8047B704743
:1018900080B400AF00BFBD465DF8047B704780B4E4
:1018A00000AF00BFBD465DF8047B704780B500AF58
:1018B00018F0F8F900BF80BD80B500AF01201CF022
:1018C000B5FA00BF80BD80B500AF02201CF0AEFAB3
:1018D00000BF80BD80B500AF10201CF0A7FA00BF8C
:1018E00080BD80B400AF00BFBD465DF8047B70478B
:1018F00080B500AF20201CF099FA80201CF096FAE9
:1019000000BF80BD80B500AF024827F0D3FE00BF06
:1019100080BD00BF901A002080B500AF02482CF0B7
:10192000A7F800BF80BD00BF441D002080B500AFF8
:101930004FF400501CF07AFA4FF480601CF076FAF5
:1019400002481BF083F800BF80BD00BF8C0100205F
:1019500080B582B000AF00237B60194B194A1A6032
:10196000194B1B685A1C18490A60002B22D11448D5
:1019700020F0BFF90346002B1CD1114800F0C6F936
:101980007B68002B16D10E4800F08CF90346002B23
:1019900003D06FF007037B600CE00021084822F0C1
:1019A000CBF80346002B03D06FF007037B6001E008
:1019B00000237B607B6818460837BD4680BD00BFAA
:1019C0003C1A002000540040D008002080B582B0AE
:1019D00000AF00237B600F4B1B68002B14D00D4B16
:1019E0001B68013B0B4A13600A4B1B68002B0BD191
:1019F000094800F0C5F908481CF064FB0346002BB9
:101A000002D06FF007037B607B6818460837BD463D
:101A100080BD00BFD00800203C1A002080B584B0F3
:101A200000AF03463960FB800023FB60F9884FF468
:101A300080533A6806481EF095FD0346002B02D0FD
:101A40006FF00203FB60FB6818461037BD4680BD8F
:101A50003C1A002080B58AB004AFBA601A4603462B
:101A6000FB810B46BB811346FB8000237B61BA8957
:101A7000F9894FF480530293FB880193BB6800936C
:101A800001230C481DF076FE0346002B0CD00948BC
:101A900020F04BF90346042B03D16FF065037B6103
:101AA00002E06FF003037B617B6918461837BD467F
:101AB00080BD00BF3C1A002080B58AB004AFBA6078
:101AC0001A460346FB810B46BB811346FB8000236D
:101AD0007B61BA89F9894FF480530293FB880193A3
:101AE000BB68009301230C481DF03EFF0346002B0A
:101AF0000CD0094820F019F90346042B03D16FF0EC
:101B000065037B6102E06FF003037B617B6918462C
:101B10001837BD4680BD00BF3C1A002080B58AB092
:101B200004AFBA601A460346FB810B46BB811346DD
:101B3000FB8000237B61BA89F9894FF480530293BB
:101B4000FB880193BB68009310230C481DF012FE24
:101B50000346002B0CD0094820F0E7F80346042B7D
:101B600003D16FF065037B6102E06FF003037B61DB
:101B70007B6918461837BD4680BD00BF3C1A00205F
:101B800080B58AB004AFBA601A460346FB810B46A3
:101B9000BB811346FB8000237B61BA89F9894FF42E
:101BA00080530293FB880193BB68009310230C4879
:101BB0001DF0DAFE0346002B0CD0094820F0B5F8E2
:101BC0000346042B03D06FF065037B6102E06FF0E6
:101BD00003037B617B6918461837BD4680BD00BF93
:101BE0003C1A002080B586B002AF03463960FB8006
:101BF0001346BB800023FB60BA88F9884FF48053FA
:101C0000009313463A680C481CF0A0FA0346002BD8
:101C10000CD0094820F089F80346042B03D06FF05C
:101C20006503FB6002E06FF00303FB60FB6818468E
:101C30001037BD4680BD00BF3C1A002080B586B07D
:101C400002AF03463960FB801346BB800023FB6074
:101C5000BA88F9884FF48053009313463A680C48C9
:101C60001CF072FB0346002B0CD0094820F05DF8F5
:101C70000346042B03D06FF06503FB6002E06FF0B6
:101C80000303FB60FB6818461037BD4680BD00BFEC
:101C90003C1A002080B500AF18F018F8034618462B
:101CA00080BD000080B584B000AF78600023FB7376
:101CB0007B68144A1A607B68134A5A607B6800226A
:101CC0009A607B680022DA607B684FF480421A6178
:101CD0007B6800225A617B6800229A617B6800223F
:101CE000DA617B6800221A6278681CF0C3F8034648
:101CF000002B01D00123FB73FB7B18461037BD4638
:101D000080BD00BF00540040801A060080B58AB034
:101D100000AF786000233B61174A174B1B6B43F001
:101D200002031363144B1B6B03F002033B613B691B
:101D30004FF440737B611223BB610123FB610323DA
:101D40003B6204237B6207F1140319460B481BF026
:101D500093FD0023FB60084A074B1B6C43F4001300
:101D60001364054B1B6C03F40013FB60FB6800BF9E
:101D70002837BD4680BD00BF003802400004024045
:101D800080B582B000AF7860074A074B1B6C23F424
:101D9000001313644FF4407104481BF0EFFE00BFC2
:101DA0000837BD4680BD00BF003802400004024035
:101DB00080B400AF164A164BD3F8883043F4700352
:101DC000C2F88830134A134B1B6843F001031360B9
:101DD000104B00229A600F4A0E4B1B6823F084734D
:101DE00023F4803313600B4B0B4A5A60094A094BAA
:101DF0001B6823F480231360064B0022DA60044B37
:101E00004FF000629A6000BFBD465DF8047B7047EA
:101E100000ED00E0003802401030002480B487B0AC
:101E200000AF00233B6100237B610223FB600023A2
:101E3000BB6002237B60314B9B6803F00C033B616A
:101E40003B69042B07D0082B09D0002B3DD12C4B2C
:101E50002C4A1A603DE02A4B2B4A1A6039E0274B86
:101E60005B689B0D03F00103BB60244B5B6803F0D0
:101E70003F037B60BB68002B0CD0234A7B68B2FB1E
:101E8000F3F31E4A52689209C2F3080202FB03F3FD
:101E90007B610BE01B4A7B68B2FBF3F3174A526885
:101EA0009209C2F3080202FB03F37B61134B5B68E8
:101EB0001B0C03F0030301335B00FB607A69FB68D2
:101EC000B2FBF3F30E4A136003E00D4B0D4A1A60A8
:101ED00000BF0A4B9B681B0903F00F030B4AD35C3E
:101EE0003B61074B1A683B6922FA03F3044A13600B
:101EF00000BF1C37BD465DF8047B704700380240C8
:101F0000040000200024F40000127A00104E0308A0
:101F100080B58CB000AF07F1200300221A605A6030
:101F20009A60DA6007F10C0300221A605A609A6026
:101F3000DA601A613B1D00221A605A60264B274A5C
:101F40001A60254B41F287325A60234B00229A6077
:101F5000214B41F63F72DA601F4B00221A611E4B83
:101F600000225A611C4B80229A611B4825F099FA85
:101F70000346002B01D0FFF7F3FB4FF480533B6285
:101F800007F120031946144828F064FB0346002B90
:101F900001D0FFF7E5FB0423FB6000233B6107F161
:101FA0000C0319460C4828F028FC0346002B01D0EE
:101FB000FFF7D6FB00237B600023BB603B1D194667
:101FC00005482AF03FFC0346002B01D0FFF7C8FB71
:101FD00000BF3037BD4680BD901A00200000014090
:101FE00080B584B000AF78607B681B680E4A93426E
:101FF00015D10023FB600D4A0C4B5B6C43F00103D1
:1020000053640A4B5B6C03F00103FB60FB68002226
:102010000021192018F08BF9192018F0A4F900BF3D
:102020001037BD4680BD00BF0000014000380240AF
:1020300080B582B000AF78607B681B68074A934226
:1020400008D1074A064B5B6C23F001035364192047
:1020500018F097F900BF0837BD4680BD0000014069
:102060000038024080B584B000AF786039607B688A
:10207000002B03D14FF0FF33FB6030E03B681A6860
:102080007B681A603B685A687B685A603B689A684C
:102090007B689A603B681A7B7B681A733B681A6995
:1020A0007B681A613B685A697B685A613B689A6928
:1020B0007B689A617B680C4A1A627B680B4ADA611A
:1020C0007B687A685A627B681B68002B04D07B6847
:1020D0001B689847F86002E04FF0FF33FB60FB6835
:1020E00018461037BD4680BD51290008B3290008A5
:1020F00080B582B000AF78607B6893F82830002B01
:1021000008D1786800F0AAFB0346002B02D04FF0FC
:10211000FF3304E07B68012283F82820002318465F
:102120000837BD4680BD80B582B000AF78607B685F
:1021300093F82830012B11D1786800F08FF803460E
:10214000002B02D04FF0FF330DE0786800F0A9F9C2
:102150000346002B02D04FF0FF3304E07B680022DF
:1021600083F82820002318460837BD4680BD80B577
:1021700082B000AF786039607B681C3339681846DC
:1021800000F094FE0346002B02D04FF0FF3300E036
:10219000002318460837BD4680BD000080B483B0D8
:1021A00000AF786039603B6801229A703B6800227A
:1021B0005A703B6801221A703B680022DA703B6853
:1021C000074A5A603B68064A9A603B684FF0000233
:1021D000DA60002318460C37BD465DF8047B704773
:1021E0000000484180B483B000AF786039607B68FC
:1021F000002B02D14FF0FF3305E07B6893F82820D5
:102200003B681A70002318460C37BD465DF8047B06
:10221000704780B582B000AF78607B6893F8293052
:10222000012B01D1002315E07B6893F82A30002BA5
:102230000BD17B681C330121184600F048FE034691
:10224000002B02D04FF0FF3304E07B68012283F8BB
:102250002920002318460837BD4680BD80B582B0CE
:1022600000AF78607B6893F82930002B01D1002300
:1022700015E07B6893F82A30002B0BD17B681C3368
:102280000021184600F023FE0346002B02D04FF039
:10229000FF3304E07B68002283F8292000231846DE
:1022A0000837BD4680BD80B582B000AF7860396028
:1022B0003968786800F05EFA034618460837BD466C
:1022C00080BD80B582B000AF786087ED000A97EDE1
:1022D000000A786800F092FA034618460837BD46AF
:1022E00080BD000080B588B000AF786039607B6841
:1022F0001C3307F118021146184601F011F8034685
:10230000002B02D04FF0FF3388E0B7F9183007EE0A
:10231000903AF8EEE77AC7ED027A7B681C3307F152
:1023200018021146184600F079FF0346002B02D030
:102330004FF0FF3372E03B7E07EE903AF8EE677A9B
:10234000C7ED037A7B681C3307F118021146184663
:1023500000F0F7FF0346002B02D04FF0FF335DE0A3
:10236000B7F9183007EE903AF8EEE77AC7ED047A3D
:102370007B681C3307F118021146184600F065FF10
:102380000346002B02D04FF0FF3347E03B7E07EEC1
:10239000903AF8EE677AC7ED057A07F11C0302223E
:1023A0000021184630F009FE7B681C3307F11C023F
:1023B0001146184600F058FD0346002B02D04FF09E
:1023C000FF332BE0B7F91C3007EE903AF8EEE77ACE
:1023D00007F10803B0EE670A184600F080FAF0EE45
:1023E000407A3B68C3ED007A3B68D3ED007AF5EEA6
:1023F000C07AF1EE10FA03D53B684FF000021A6084
:102400003B68D3ED007A9FED077AF4EEC77AF1EEE0
:1024100010FA02DD3B68044A1A6000231846203790
:10242000BD4680BD0000C8420000C84280B582B0F1
:1024300000AF786039607B681C333968184600F05B
:10244000FAFC0346002B02D04FF0FF3300E00023DC
:1024500018460837BD4680BD80B582B000AF7860B1
:102460007B6893F82A30012B01D1002315E07B68AB
:1024700093F82930002B0BD17B681C3301211846BF
:1024800000F025FD0346002B02D04FF0FF3304E09F
:102490007B68012283F82A20002318460837BD46AE
:1024A00080BD80B582B000AF78607B6893F82A3039
:1024B000002B01D1002315E07B6893F82930002B15
:1024C0000BD17B681C330021184600F000FD034649
:1024D000002B02D04FF0FF3304E07B68002283F82A
:1024E0002A20002318460837BD4680BD80B582B03B
:1024F00000AF786039603968786800F03BF90346CE
:1025000018460837BD4680BD80B582B000AF786000
:1025100087ED000A97ED000A786800F06FF903462E
:1025200018460837BD4680BD80B588B000AF7860DA
:1025300039607B681C3307F118021146184600F019
:1025400011FF0346002B02D04FF0FF336FE0B7F9C5
:10255000183007EE903AF8EEE77AC7ED027A7B681A
:102560001C3307F118021146184600F085FE034699
:10257000002B02D04FF0FF3359E03B7E07EE903A3C
:10258000F8EE677AC7ED037A7B681C3307F118020F
:102590001146184600F0F7FE0346002B02D04FF01C
:1025A000FF3344E0B7F9183007EE903AF8EEE77AD7
:1025B000C7ED047A7B681C3307F1180211461846F0
:1025C00000F084FE0346002B02D04FF0FF332EE0D4
:1025D0003B7E07EE903AF8EE677AC7ED057A07F191
:1025E0001C0302220021184630F0E7FC7B681C33F4
:1025F00007F11C021146184600F047FC0346002B69
:1026000002D04FF0FF3312E0B7F91C3007EE903ADA
:10261000F8EEE77A07F10803B0EE670A184600F013
:102620005EF9F0EE407A3B68C3ED007A002318466D
:102630002037BD4680BD80B582B000AF786039607C
:102640007B681C333968184600F0DCFB0346002B1E
:1026500002D04FF0FF3300E0002318460837BD4694
:1026600080BD80B582B000AF78607B681C330021EC
:10267000184600F0EBFA0346002B02D04FF0FF3370
:102680000CE07B681C330121184600F07CFB0346FC
:10269000002B02D04FF0FF3300E00023184608372C
:1026A000BD4680BD80B584B000AF786039607B687E
:1026B0001C3307F10F021146184600F0BCFB03461D
:1026C000002B02D04FF0FF331BE07B681C3307F177
:1026D0000E021146184600F095FB0346002B02D06F
:1026E0004FF0FF330DE0FB7B002B06D0BB7B002BB4
:1026F00003D03B6801221A7002E03B6800221A7086
:10270000002318461037BD4680BD80B584B000AFA9
:10271000F8600B467A60FB72FB6803F11C00F97AE3
:1027200001237A6800F076F90346002B02D04FF0BF
:10273000FF3300E0002318461037BD4680BD80B54A
:1027400082B000AF78600B46FB701346BB707B68AD
:1027500003F11C00BA1CF978012300F073F9034659
:10276000002B02D04FF0FF3300E00023184608375B
:10277000BD4680BD80B584B000AF7860396000236D
:10278000FB607B681C3307F10B021146184600F012
:1027900083FA0346002B02D04FF0FF3325E0FB7A8B
:1027A000032B1DD801A252F823F000BFBD2700085B
:1027B000C7270008D1270008D92700083B684FF039
:1027C00000021A6010E03B684FF07E521A600BE086
:1027D0003B68084A1A6007E03B68074A1A6003E052
:1027E0004FF0FF33FB6000BFFB6818461037BD4653
:1027F00080BD00BF0000E0400000484180B584B0CB
:1028000000AF786087ED000AD7ED007AB7EE007A66
:10281000F4EEC77AF1EE10FA01D801230BE0D7ED00
:10282000007AB1EE0C7AF4EEC77AF1EE10FA01D824
:10283000022300E00323FB737B681C33FA7B114601
:10284000184600F003FA0346002B02D04FF0FF3386
:1028500000E0002318461037BD4680BD80B582B029
:1028600000AF78607B681C330021184600F02FFB16
:102870000346002B02D04FF0FF3317E07B681C3378
:102880000121184600F040FA0346002B02D04FF019
:10289000FF330BE0B7EE000A7868FFF7AFFF03469F
:1028A000002B02D04FF0FF3300E00023184608371A
:1028B000BD4680BD80B582B000AF78607B681C33B8
:1028C0000121184600F0D1FB0346002B02D04FF047
:1028D000FF3300E0002318460837BD4680BD80B4B2
:1028E00083B000AF786087ED000A7B6893ED037AD0
:1028F0007B68D3ED017A37EE677AD7ED007A27EE61
:10290000277A7B68D3ED026A7B68D3ED017A66EEA5
:10291000A76A7B6893ED006A7B68D3ED037A66EE65
:10292000277A76EEE77A37EE277A7B68D3ED026A6C
:102930007B68D3ED007A76EEE77AC7EE276AF0EE91
:10294000667AB0EE670A0C37BD465DF8047B7047C7
:1029500090B587B000AFF8607A601A460B46FB72FC
:1029600013463B81FB687B617B699B68002B0ED122
:102970007B695C697B691B7B98B2FB7A63F07F03A0
:10298000DBB299B23B897A68A04703460DE07B69C8
:102990005C697B691B7B98B2FB7A43F04003DBB236
:1029A00099B23B897A68A047034618461C37BD4652
:1029B00090BD90B587B000AFF8607A601A460B46BC
:1029C000FB7213463B81FB687B617B699B68002B34
:1029D0000ED17B691C697B691B7B98B2FB7A63F023
:1029E0007F03DBB299B23B897A68A04703460DE0CA
:1029F0007B691C697B691B7B98B2FB7A43F04003BF
:102A0000DBB299B23B897A68A047034618461C3767
:102A1000BD4690BD90B587B000AFF8607A601A46A9
:102A20000B46FB7213463B81FB685C68FB68986849
:102A30003B89F97A7A68A04778617B6918461C3728
:102A4000BD4690BD90B587B000AFF8607A601A4679
:102A50000B46FB7213463B81FB681C68FB68986859
:102A60003B89F97A7A68A04778617B6918461C37F8
:102A7000BD4690BD80B584B000AF78600B46FB705A
:102A800007F10802012310217868FFF7C3FFF860FF
:102A9000FB68002B0FD1FB7803F00703DAB23B7A17
:102AA00062F302033B7207F10802012310217868E8
:102AB000FFF7C8FFF860FB6818461037BD4680BDB9
:102AC00080B584B000AF7860396007F10802012357
:102AD00010217868FFF79EFFF8603B7AC3F302038A
:102AE000DBB2072B32D801A252F823F00D2B0008DD
:102AF000152B00081D2B0008252B00082D2B000886
:102B0000352B00083D2B0008452B00083B680022B0
:102B10001A701FE03B6801221A701BE03B6802221A
:102B20001A7017E03B6803221A7013E03B68042216
:102B30001A700FE03B6805221A700BE03B68062212
:102B40001A7007E03B6807221A7003E03B6808220E
:102B50001A7000BFFB6818461037BD4680BD00BF25
:102B600080B584B000AF78600B46FB7007F10802B7
:102B7000012310217868FFF74DFFF860FB68002BF8
:102B80000FD1FB7803F00703DAB23B7A62F3C50397
:102B90003B7207F10802012310217868FFF752FF0A
:102BA000F860FB6818461037BD4680BD80B584B01C
:102BB00000AF7860396007F10802012310217868BE
:102BC000FFF728FFF8603B7AC3F30203DBB2072B61
:102BD00032D801A252F823F0F92B0008012C00088A
:102BE000092C0008112C0008192C0008212C0008C1
:102BF000292C0008312C00083B6800221A701FE0C5
:102C00003B6801221A701BE03B6802221A7017E031
:102C10003B6803221A7013E03B6804221A700FE02D
:102C20003B6805221A700BE03B6806221A7007E029
:102C30003B6807221A7003E03B6808221A7000BF45
:102C4000FB6818461037BD4680BD00BF80B584B014
:102C500000AF78600B46FB7007F1080201232021CA
:102C60007868FFF7D7FEF860FB68002B0FD1FB7880
:102C700003F00303DAB23B7A62F301033B7207F11C
:102C80000802012320217868FFF7DCFEF860FB686A
:102C900018461037BD4680BD80B584B000AF78605F
:102CA000396007F10802012320217868FFF7B2FE9E
:102CB000F8603B7AC3F30103DBB2032B1AD801A2FD
:102CC00052F823F0D52C0008DD2C0008E52C000874
:102CD000ED2C00083B6800221A700FE03B680122CF
:102CE0001A700BE03B6802221A7007E03B6803226F
:102CF0001A7003E03B6804221A7000BFFB68184694
:102D00001037BD4680BD00BF80B584B000AF78608D
:102D10000B46FB7007F10802012320217868FFF7BA
:102D200079FEF860FB68002B0FD1FB7803F00103FC
:102D3000DAB23B7A62F382033B7207F108020123A5
:102D400020217868FFF77EFEF860FB681846103790
:102D5000BD4680BD80B584B000AF7860396007F1B2
:102D60000802012320217868FFF754FEF8603B7ABF
:102D7000C3F38003DBB21A463B681A70FB6818463F
:102D80001037BD4680BD80B584B000AF78600B467B
:102D9000FB7007F10802012321217868FFF73AFE52
:102DA000F860FB68002B0FD1FB7803F00103DAB267
:102DB0003B7A62F300033B7207F1080201232121F1
:102DC0007868FFF73FFEF860FB6818461037BD468D
:102DD00080BD80B584B000AF7860396007F108022B
:102DE000012321217868FFF715FEF8603B7AC3F3D1
:102DF0000003DBB21A463B681A70FB6818461037AE
:102E0000BD4680BD80B584B000AF7860396007F101
:102E10000802012327217868FFF7FCFDF8603B7A60
:102E2000C3F30003DBB21A463B681A70FB6818460E
:102E30001037BD4680BD80B584B000AF7860396082
:102E400007F10802012327217868FFF7E3FDF86006
:102E50003B7AC3F34003DBB21A463B681A70FB6847
:102E600018461037BD4680BD80B584B000AF78608D
:102E7000396002233A6828217868FFF7CBFDF860B3
:102E8000FB6818461037BD4680BD80B584B000AFE2
:102E90007860396002233A682A217868FFF7BAFD22
:102EA000F860FB6818461037BD4680BD80B584B019
:102EB00000AF7860396001233A680F217868FFF726
:102EC000A9FDF860FB6818461037BD4680BD80B587
:102ED00084B000AF78600B46FB7007F10802012355
:102EE00020217868FFF796FDF860FB68002B0FD172
:102EF000FB7803F00103DAB23B7A62F3C7133B724B
:102F000007F10802012320217868FFF79BFDF86094
:102F1000FB6818461037BD4680BD80B584B000AF51
:102F20007860396007F10802012320217868FFF7F3
:102F300071FDF8603B7AC3F3C013DBB21A463B68FD
:102F40001A70FB6818461037BD4680BD80B584B046
:102F500000AF78600B46FB7007F1080201232121C6
:102F60007868FFF757FDF860FB68002B0FD1FB78FE
:102F700003F00103DAB23B7A62F341033B7207F1DB
:102F80000802012321217868FFF75CFDF860FB68E7
:102F900018461037BD4680BD80B584B000AF78605C
:102FA000396007F10802012321217868FFF732FD1B
:102FB000F8603B7AC3F34003DBB21A463B681A70F1
:102FC000FB6818461037BD4680BD80B584B000AFA1
:102FD00078600B46FB7007F1080201232121786815
:102FE000FFF718FDF860FB68002B0FD1FB7803F0AA
:102FF0000103DAB23B7A62F3C7133B7207F10802AE
:10300000012321217868FFF71DFDF860FB68184651
:103010001037BD4680BD80B584B000AF78603960A0
:1030200007F10802012321217868FFF7F3FCF8601B
:103030003B7AC3F3C013DBB21A463B681A70FB68D5
:1030400018461037BD4680BD80B584B000AF7860AB
:10305000396001233A6827217868FFF7DBFCF860C4
:10306000FB6818461037BD4680BD80B584B000AF00
:1030700078600B46FB7007F1080201232221786873
:10308000FFF7C8FCF860FB68002B0FD1FB7803F05A
:103090000103DAB23B7A62F382033B7207F1080262
:1030A000012322217868FFF7CDFCF860FB68184601
:1030B0001037BD4680BD80B584B000AF7860396000
:1030C00007F10802012322217868FFF7A3FCF860CA
:1030D0003B7AC3F38003DBB21A463B681A70FB6885
:1030E00018461037BD4680BD80B584B000AF78600B
:1030F0000B46FB7007F10802012322217868FFF7D5
:1031000089FCF860FB68002B0FD1FB7803F001030A
:10311000DAB23B7A62F386133B7207F108020123AD
:1031200022217868FFF78EFCF860FB68184610379C
:10313000BD4680BD80B584B000AF7860396007F1CE
:103140000802012322217868FFF764FCF8603B7ACB
:10315000C3F38013DBB2002B02D0012B04D007E0B5
:103160003B6800221A7007E03B6801221A7003E0F6
:103170003B6802221A7000BFFB6818461037BD4634
:1031800080BD80B584B000AF78600B46FB7007F15E
:103190000802012322217868FFF73CFCF860FB68F5
:1031A000002B0FD1FB7803F00103DAB23B7A62F314
:1031B000C7133B7207F10802012322217868FFF749
:1031C00041FCF860FB6818461037BD4680BD80B5ED
:1031D00084B000AF7860396007F108020123222132
:1031E0007868FFF717FCF8603B7AC3F3C013DBB2D3
:1031F000002B02D0012B04D007E03B6800221A709C
:1032000007E03B6801221A7003E03B6802221A7053
:1032100000BFFB6818461037BD4680BD80B584B03E
:1032200000AF7860396001233A6830217868FFF791
:10323000F1FBF8603B681B785B08DAB23B681A70F8
:10324000FB6818461037BD4680BD80B584B000AF1E
:103250007860396001233A6831217868FFF7DAFB3A
:10326000F8603B681B785B08DAB23B681A70FB6851
:1032700018461037BD4680BD80B586B000AF786077
:10328000396007F10F02012332217868FFF7C2FB92
:1032900078617B69002B14D107F1100201233521DD
:1032A0007868FFF7B7FB78613B7CC3F30103DBB2BF
:1032B000FB74FB7C1B02FA7B1344DB10DAB23B6825
:1032C0001A707B6918461837BD4680BD80B586B038
:1032D00000AF7860396007F10F020123332178686D
:1032E000FFF798FB78617B69002B14D107F110027E
:1032F000012335217868FFF78DFB78613B7CC3F3B0
:103300008103DBB2FB74FB7C1B02FA7B1344DB10F2
:10331000DAB23B681A707B6918461837BD4680BD23
:1033200080B584B000AF7860396002233A683621F6
:103330007868FFF76FFBF860FB6818461037BD46EA
:1033400080BD80B584B000AF7860396002233A68F0
:103350003A217868FFF75EFBF860FB681846103783
:10336000BD4680BD80B584B000AF7860396002236F
:103370003A683C217868FFF74DFBF860FB68184617
:103380001037BD4680BD80B584B000AF786039602D
:1033900002233A683E217868FFF73CFBF860FB683F
:1033A00018461037BD4680BD80B584B000AF786048
:1033B00039600023FB607B68002B03D14FF0FF33A3
:1033C000FB604DE03B681A687B681A603B685A688E
:1033D0007B685A603B689A687B689A603B681A7B96
:1033E0007B681A733B681A697B681A613B685A6983
:1033F0007B685A613B689A697B689A617B681B4A63
:103400001A627B681A4ADA617B687A685A627B685A
:103410001B68002B03D14FF0FF33FB6020E07B687B
:103420001B6898470346002B03D04FF0FF33FB6027
:1034300016E07B689B68022B12D17B6893F82830DA
:10344000002B0DD10523FB72FB7A1A4621217868E7
:1034500000F07DFD0346002B02D04FF0FF33FB60F0
:10346000FB6818461037BD4680BD00BFB94D000847
:10347000EF4D000880B582B000AF78607B681C33E8
:103480000121184602F08BF90346002B02D04FF0C1
:10349000FF334BE07B681C330121184601F0C0FF6D
:1034A0000346002B02D04FF0FF333FE07B681C3314
:1034B0000021184603F07FFD0346002B02D04FF099
:1034C000FF3333E07B681C330421184601F0B4FD60
:1034D0000346002B02D04FF0FF3327E07B68154AEC
:1034E000DA627B68002283F830207B68002283F850
:1034F00031207B681C330021184601F0A7FE0346EB
:10350000002B02D04FF0FF3310E07B681C3300210A
:10351000184601F0C4FF0346002B02D04FF0FF33E2
:1035200004E07B68012283F828200023184608372E
:10353000BD4680BD0000C84280B582B000AF786053
:10354000786800F088F80346002B02D04FF0FF3374
:1035500010E07B684FF00002DA627B68002283F89B
:1035600030207B68002283F831207B68002283F8BA
:103570002820002318460837BD4680BD80B582B09C
:1035800000AF786039607B681C333968184602F0F8
:10359000F5F80346002B02D04FF0FF3300E0002384
:1035A00018460837BD4680BD80B483B000AF786050
:1035B00039603B6801221A703B6800225A703B68F0
:1035C00000229A703B680022DA703B6800225A6041
:1035D0003B6810229A603B680022DA603B684FF03B
:1035E00000021A613B68064A5A613B684FF00002CC
:1035F0009A61002318460C37BD465DF8047B70477E
:103600000000C84480B582B000AF78607B6893F852
:103610002930012B01D1002319E07B68D3ED0B7A0F
:103620007B6893F830107B6893F831301A46B0EE1F
:10363000670A786801F012FA0346002B02D04FF0B7
:10364000FF3304E07B68012283F829200023184619
:103650000837BD4680BD80B582B000AF78607B681A
:1036600093F82930002B01D1002310E07B681C3334
:103670000021184601F0EAFD0346002B02D04FF06E
:10368000FF3304E07B68002283F8292000231846DA
:103690000837BD4680BD000080B584B000AF7860BB
:1036A00039600023FB607B681C3307F10B02114675
:1036B000184601F01BFF0346002B02D04FF0FF33EA
:1036C000A0E07B681C3307F10A021146184601F09E
:1036D00003FD0346002B02D04FF0FF3392E0BB7A8C
:1036E0001B2B00F2878001A252F823F05D370008FF
:1036F000A9370008A9370008A9370008A93700082A
:10370000F5370008F5370008F53700085D37000881
:10371000A9370008A9370008A9370008F5370008BD
:10372000F5370008F5370008F53700085D37000861
:10373000A9370008A9370008A9370008A9370008E9
:10374000F5370008F5370008F53700085D37000841
:10375000A9370008A9370008A9370008FB7A032B0E
:103760001AD801A252F823F07937000881370008EF
:1037700089370008913700083B68244A1A6012E034
:103780003B68234A1A600EE03B68224A1A600AE04E
:103790003B68214A1A6006E03B68204A1A604FF0F5
:1037A000FF33FB6000BF2CE0FB7A032B1AD801A289
:1037B00052F823F0C5370008CD370008D537000888
:1037C000DD3700083B68164A1A6012E03B68154A6C
:1037D0001A600EE03B680D4A1A600AE03B680C4A2A
:1037E0001A6006E03B680D4A1A604FF0FF33FB6039
:1037F00000BF06E03B68094A1A604FF0FF33FB60E8
:1038000000BFFB6818461037BD4680BD23DB793FFB
:1038100023DBF93F23DB794023DBF940000080BF45
:1038200023DB793E23DBF93E80B584B000AF7860BE
:1038300039600023FB607B681C3307F10B021146E3
:10384000184601F049FD0346002B02D04FF0FF332C
:10385000B0E17B681C3307F10A021146184601F0FB
:103860003BFC0346002B02D04FF0FF33A2E1FB7A72
:10387000202B00F2978101A252F823F001390008B1
:103880000B390008A9390008B1390008B939000816
:10389000C1390008C9390008D13900086D3A00085B
:1038A000093B0008A53B0008A53B0008A53B000814
:1038B000A53B0008A53B0008A53B0008013900080E
:1038C000A53B0008A53B0008A53B0008A53B000858
:1038D000A53B0008A53B0008A53B0008A53B000848
:1038E000A53B0008A53B0008A53B0008A53B000838
:1038F000A53B0008A53B0008A53B000801390008CE
:103900003B684FF000021A6053E1BB7A1B2B43D88F
:1039100001A252F823F000BF913900089139000844
:10392000913900089139000889390008993900084F
:10393000993900089939000891390008913900082F
:10394000913900089139000899390008993900081F
:10395000993900089939000891390008913900080F
:10396000913900089139000889390008993900080F
:1039700099390008993900089139000891390008EF
:1039800091390008913900083B688C4A1A600AE0B6
:103990003B688B4A1A6006E03B688A4A1A604FF01F
:1039A000FF33FB6000BF04E13B68844A1A6000E11A
:1039B0003B68854A1A60FCE03B68844A1A60F8E07C
:1039C0003B68834A1A60F4E03B68824A1A60F0E080
:1039D000BB7A1B2B42D801A252F823F0553A0008BB
:1039E000553A0008553A0008553A00084D3A000883
:1039F0005D3A00085D3A00085D3A0008553A000853
:103A0000553A0008553A0008553A00085D3A000852
:103A10005D3A00085D3A00085D3A0008553A000832
:103A2000553A0008553A0008553A00084D3A000842
:103A30005D3A00085D3A00085D3A0008553A000812
:103A4000553A0008553A0008553A00083B68624A62
:103A50001A600AE03B685F4A1A6006E03B68594A10
:103A60001A604FF0FF33FB6000BFA2E0BB7A1B2B54
:103A700042D801A252F823F0F13A0008F13A0008C6
:103A8000F13A0008F13A0008E93A0008F93A00086A
:103A9000F93A0008F93A0008F13A0008F13A00084A
:103AA000F13A0008F13A0008F93A0008F93A00083A
:103AB000F93A0008F93A0008F13A0008F13A00082A
:103AC000F13A0008F13A0008E93A0008F93A00082A
:103AD000F93A0008F93A0008F13A0008F13A00080A
:103AE000F13A0008F13A00083B683C4A1A600AE0E3
:103AF0003B68384A1A6006E03B68324A1A604FF069
:103B0000FF33FB6000BF54E0BB7A1B2B42D801A2FD
:103B100052F823F08D3B00088D3B00088D3B0008D8
:103B20008D3B0008853B0008953B0008953B00084D
:103B3000953B00088D3B00088D3B00088D3B00083D
:103B40008D3B0008953B0008953B0008953B00081D
:103B5000953B00088D3B00088D3B00088D3B00081D
:103B60008D3B0008853B0008953B0008953B00080D
:103B7000953B00088D3B00088D3B00088D3B0008FD
:103B80008D3B00083B68164A1A600AE03B68114A00
:103B90001A6006E03B680B4A1A604FF0FF33FB6087
:103BA00000BF06E03B68074A1A604FF0FF33FB6036
:103BB00000BFFB6818461037BD4680BD0000484175
:103BC000CDCCCC3F000080BF0000C841000048427F
:103BD0000000C842000048430000C84300004844B9
:103BE0000000C84480B582B000AF786087ED000A5D
:103BF0000022002197ED000A786800F005F80346DE
:103C000018460837BD4680BD80B584B000AFF86067
:103C100087ED020A0B46FB711346BB71FB6893F8F4
:103C20002930012B09D1BA79FB79194697ED020A9F
:103C3000F86800F013FF034608E0BA79FB791946EB
:103C400097ED020AF86801F025F803461846103788
:103C5000BD4680BD80B584B000AF78603960002378
:103C6000FB607B681C3307F10B021146184601F01C
:103C70003DFC0346002B02D04FF0FF3327E0FB7AD8
:103C8000032B1BD801A252F823F000BF9D3C000873
:103C9000A53C0008AD3C0008B53C00083B6802228A
:103CA0001A6013E03B6804221A600FE03B680822A8
:103CB0001A600BE03B6810221A6007E03B684FF087
:103CC000FF321A604FF0FF33FB6000BFFB681846FD
:103CD0001037BD4680BD00BF80B584B000AF7860AE
:103CE00039603B68022B0BDD3B68042B06DD3B682B
:103CF000082B01DC022304E0032302E0012300E09F
:103D00000023FB737B681C33FA7B1146184601F0D5
:103D1000C6FB0346002B02D04FF0FF3300E0002328
:103D200018461037BD4680BD80B586B000AF7860BC
:103D3000396000237B617B681C3307F10B0211465D
:103D4000184601F0C9F90346002B02D04FF0FF33AB
:103D500089E07B681C3307F10C021146184601F01C
:103D6000FCFC0346002B02D04FF0FF337BE0FB7AD4
:103D70001B2B73D801A252F823F000BFED3D0008C1
:103D8000253E0008253E0008253E0008253E000887
:103D90005D3E00085D3E00085D3E0008ED3D000808
:103DA000253E0008253E0008253E00085D3E00082F
:103DB0005D3E00085D3E00085D3E0008ED3D0008E8
:103DC000253E0008253E0008253E0008253E000847
:103DD0005D3E00085D3E00085D3E0008ED3D0008C8
:103DE000253E0008253E0008253E0008B7F90C30A6
:103DF000002B00DA0F331B111AB23B681A80B7F997
:103E00000E30002B00DA0F331B111AB23B685A80B8
:103E1000B7F91030002B00DA0F331B111AB23B68D0
:103E20009A801FE0B7F90C30002B00DA03339B10A7
:103E30001AB23B681A80B7F90E30002B00DA033350
:103E40009B101AB23B685A80B7F91030002B00DA89
:103E500003339B101AB23B689A8003E04FF0FF33A4
:103E60007B6100BF7B6918461837BD4680BD00BF27
:103E700080B586B000AF786039604FF00003FB601A
:103E800007F1100319467868FFF74EFF0346002B31
:103E900002D04FF0FF333CE007F10C03194678687D
:103EA000FFF7FAFB0346002B02D04FF0FF3330E060
:103EB000B7F9103007EE903AB8EEE77AD7ED037A0B
:103EC00067EE277AFDEEE77A17EE902A3B681A60D4
:103ED000B7F9123007EE903AB8EEE77AD7ED037AE9
:103EE00067EE277AFDEEE77A17EE902A3B685A6074
:103EF000B7F9143007EE903AB8EEE77AD7ED037AC7
:103F000067EE277AFDEEE77A17EE902A3B689A6013
:103F1000002318461837BD4680BD80B584B000AF79
:103F2000F8600B467A60FB72FB6803F11C00F97ABB
:103F300001237A6800F076FF0346002B02D04FF091
:103F4000FF3300E0002318461037BD4680BD80B522
:103F500082B000AF78600B46FB701346BB707B6885
:103F600003F11C00BA1CF978012300F073FF03462B
:103F7000002B02D04FF0FF3300E000231846083733
:103F8000BD4680BD80B582B000AF78600B46FB7047
:103F9000FB78012B02D94FF0FF330DE07B681C3317
:103FA000FA781146184601F0AAFF0346002B02D00A
:103FB0004FF0FF3300E0002318460837BD4680BDB0
:103FC00080B584B000AF78607B681C33012118464F
:103FD00001F0F4FC0346002B02D04FF0FF3320E049
:103FE0007B681C3307F10C021146184602F003F9F6
:103FF0000346002B02D04FF0FF3312E03B7B43F02F
:1040000001033B737B681C3307F10C021146184611
:1040100002F08AF80346002B02D04FF0FF3300E095
:10402000002318461037BD4680BD80B584B000AF70
:1040300078607B681C3307F10C021146184602F0C9
:10404000DAF80346002B02D04FF0FF3312E03B7B3F
:104050006FF300033B737B681C3307F10C021146BE
:10406000184602F061F80346002B02D04FF0FF33F0
:1040700000E0002318461037BD4680BD80B582B0F1
:1040800000AF78600B46FB707B681C33FA781146F2
:10409000184601F063FD0346002B02D04FF0FF33BA
:1040A00000E0002318460837BD4680BD80B584B0C7
:1040B00000AF78600023FB609FED280A7868FFF767
:1040C00091FD0346002B02D04FF0FF3342E0022166
:1040D0007868FFF701FE0346002B02D04FF0FF3354
:1040E00038E07B681C330021184602F013F90346C0
:1040F000002B02D04FF0FF332CE07B681C330221F1
:10410000184602F0C8F80346002B02D04FF0FF33E8
:1041100020E07B681C3307F108021146184601F0C5
:10412000F2FF0346002B02D04FF0FF3312E03B7A40
:1041300043F020033B727B681C3307F108021146F1
:10414000184601F076FF0346002B02D04FF0FF33F4
:1041500000E0FB6818461037BD4680BD00004843AC
:1041600080B586B000AF78607B6803F11C0007F172
:1041700014020123232100F055FE0346002B02D038
:104180004FF0FF336EE03B7D6FF345133B757B686B
:1041900003F11C0007F114020123232100F05AFE51
:1041A0000346002B02D04FF0FF335BE07B6803F146
:1041B0001C0007F110020123242100F033FE034606
:1041C000002B02D04FF0FF334CE03B7C03F0400368
:1041D000DBB2002B2DD13B7D03F02003DBB2002BA3
:1041E00027D13B7D23F07F03DBB2002B21D17B68FD
:1041F00003F11C0007F10C0201233F2100F012FE25
:104200000346002B02D04FF0FF332BE03B7B6FF3D4
:1042100045133B737B6803F11C0007F10C0201237B
:104220003F2100F017FE0346002B02D04FF0FF3372
:1042300018E07B681C330021184602F02CF8034676
:10424000002B02D04FF0FF330CE07B681C330021C1
:10425000184602F05FF80346002B02D04FF0FF3300
:1042600000E0002318461837BD4680BD80B582B0F7
:1042700000AF78600B46FB707B681C33FA78114600
:10428000184602F008F80346002B02D04FF0FF3327
:1042900000E0002318460837BD4680BD80B582B0D7
:1042A00000AF78600B46FB707B681C33FA781146D0
:1042B000184602F02FF80346002B02D04FF0FF33D0
:1042C00000E0002318460837BD4680BD80B584B0A5
:1042D00000AF78600023FB609FED280A7868FFF745
:1042E00081FC0346002B02D04FF0FF3342E0022155
:1042F0007868FFF7F1FC0346002B02D04FF0FF3344
:1043000038E07B681C330121184602F012F903469D
:10431000002B02D04FF0FF332CE07B681C330121CF
:10432000184602F083F80346002B02D04FF0FF330B
:1043300020E07B681C3307F108021146184601F0A3
:104340005AFF0346002B02D04FF0FF3312E03B7AB6
:1043500043F040033B727B681C3307F108021146AF
:10436000184601F0E1FE0346002B02D04FF0FF3368
:1043700000E0FB6818461037BD4680BD000048428B
:1043800080B586B000AF78607B6803F11C0007F150
:1043900010020123242100F045FD0346002B02D02A
:1043A0004FF0FF336EE03B7C6FF386133B747B680A
:1043B00003F11C0007F110020123242100F04AFD43
:1043C0000346002B02D04FF0FF335BE07B6803F124
:1043D0001C0007F114020123232100F023FD0346F2
:1043E000002B02D04FF0FF334CE03B7C03F0400346
:1043F000DBB2002B2DD13B7D03F02003DBB2002B81
:1044000027D13B7D23F07F03DBB2002B21D17B68DA
:1044100003F11C0007F10C0201233F2100F002FD13
:104420000346002B02D04FF0FF332BE03B7B6FF3B2
:1044300045133B737B6803F11C0007F10C02012359
:104440003F2100F007FD0346002B02D04FF0FF3361
:1044500018E07B681C330021184601F0E7FF034693
:10446000002B02D04FF0FF330CE07B681C3300219F
:10447000184602F05EF80346002B02D04FF0FF33DF
:1044800000E0002318461837BD4680BD80B582B0D5
:1044900000AF78600B46FB707B681C33FA781146DE
:1044A000184602F046F80346002B02D04FF0FF33C7
:1044B00000E0002318460837BD4680BD80B584B0B3
:1044C00000AF78600023FB609FED220A7868FFF759
:1044D00089FB0346002B02D04FF0FF3336E0022168
:1044E0007868FFF7F9FB0346002B02D04FF0FF334B
:1044F0002CE07B681C330221184602F05AFB03466D
:10450000002B02D04FF0FF3320E07B681C3307F113
:1045100008021146184601F0F6FD0346002B02D0B2
:104520004FF0FF3312E03B7A43F080033B727B682D
:104530001C3307F108021146184601F07AFD0346C4
:10454000002B02D04FF0FF3300E0FB681846103715
:10455000BD4680BD0000484380B586B000AF78609E
:104560007B6803F11C0007F114020123232100F0F2
:1045700059FC0346002B02D04FF0FF3362E03B7D35
:104580006FF3C7133B757B6803F11C0007F114023E
:104590000123232100F05EFC0346002B02D04FF0E4
:1045A000FF334FE07B6803F11C0007F11002012389
:1045B000242100F037FC0346002B02D04FF0FF33DC
:1045C00040E03B7C03F04003DBB2002B2DD13B7D70
:1045D00003F02003DBB2002B27D13B7D23F07F03C8
:1045E000DBB2002B21D17B6803F11C0007F10C0228
:1045F00001233F2100F016FC0346002B02D04FF0B0
:10460000FF331FE03B7B6FF345133B737B6803F184
:104610001C0007F10C0201233F2100F01BFC0346A4
:10462000002B02D04FF0FF330CE07B681C330021DD
:10463000184602F0BEFA0346002B02D04FF0FF33BB
:1046400000E0002318461837BD4680BD80B582B013
:1046500000AF78600B46FB70FB78032B02D94FF05C
:10466000FF330DE07B681C33FA781146184602F0E0
:10467000A0FA0346002B02D04FF0FF3300E00023E6
:1046800018460837BD4680BD80B584B000AF78605D
:1046900039607B6803F11C0007F10C0201233A2109
:1046A00000F0C0FB0346002B02D04FF0FF3307E0C1
:1046B0003B7BC3F30003DBB21A463B681A7000234E
:1046C00018461037BD4680BD80B584B000AF786015
:1046D00039607B6803F11C0007F10C0201233A21C9
:1046E00000F0A0FB0346002B02D04FF0FF3307E0A1
:1046F0003B7BC3F34003DBB21A463B681A700023CE
:1047000018461037BD4680BD80B584B000AF7860D4
:1047100039607B6803F11C0007F10C0201233A2188
:1047200000F080FB0346002B02D04FF0FF3307E080
:104730003B7BC3F38003DBB21A463B681A7000234D
:1047400018461037BD4680BD80B584B000AF786094
:1047500039607B6803F11C0007F10C0201233A2148
:1047600000F060FB0346002B02D04FF0FF3307E060
:104770003B7BC3F3C003DBB21A463B681A700023CD
:1047800018461037BD4680BD80B584B000AF786054
:1047900039607B6803F11C0007F10C0201233A2108
:1047A00000F040FB0346002B02D04FF0FF3307E040
:1047B0003B7BC3F30013DBB21A463B681A7000233D
:1047C00018461037BD4680BD80B584B000AF786014
:1047D00039607B6803F11C0007F10C0201233A21C8
:1047E00000F020FB0346002B02D04FF0FF3307E020
:1047F0003B7BC3F34013DBB21A463B681A700023BD
:1048000018461037BD4680BD80B586B000AF7860D1
:1048100039600422002138682EF0CFFB7B6803F159
:104820001C0007F114020123272100F0FBFA0346C4
:10483000002B02D04FF0FF3351E07B6803F11C00E6
:1048400007F110020123232100F0ECFA0346002BAC
:1048500002D04FF0FF3342E07B6803F11C0007F108
:104860000C020123242100F0DDFA0346002B02D0C4
:104870004FF0FF3333E03B7C03F02003DBB2002B2F
:104880000AD03B7D03F04003DBB2002B04D03A6832
:10489000137843F0080313703B7C23F07F03DBB2F3
:1048A000002B0AD03B7D03F00403DBB2002B04D0C5
:1048B0003A68137843F0400313703B7B03F04003E6
:1048C000DBB2002B0AD03B7D03F02003DBB2002BD0
:1048D00004D03A68137843F080031370002318461D
:1048E0001837BD4680BD80B584B000AF78600B46F8
:1048F000FB70FB78022B02D94FF0FF3319E0FB78F5
:10490000002B06D0FB78012B01D1012302E002230A
:1049100000E00023FB737B681C33FA7B11461846CA
:1049200000F0FAFF0346002B02D04FF0FF3300E007
:10493000002318461037BD4680BD80B582B000AF59
:10494000786039607B681C333968184600F017FEC0
:104950000346002B02D04FF0FF3300E0002318463F
:104960000837BD4680BD80B483B000AF7860396041
:104970007B68002B02D14FF0FF3305E07B6893F892
:1049800028203B681A70002318460C37BD465DF896
:10499000047B704780B584B000AF786039607B6875
:1049A00003F11C0007F10C0201232F2100F03AFA59
:1049B0000346002B02D04FF0FF3311E03B7B03F0A6
:1049C0003F03DBB2202B03D13B6820221A8006E094
:1049D0003B7BC3F30503DBB29AB23B681A8000232A
:1049E00018461037BD4680BD80B584B000AF7860F2
:1049F0000B46FB700023FB60FB78062B10D801A24E
:104A000052F823F0294A0008294A0008214A0008E0
:104A1000294A0008294A0008214A0008294A0008B2
:104A20004FF0FF33FB6000E000BFFB68B3F1FF3FD6
:104A300001D1FB680DE07B681C33FA7811461846FB
:104A400002F0B9FA0346002B02D04FF0FF3300E02A
:104A5000FB6818461037BD4680BD00BF80B586B0E4
:104A600000AFF86087ED020A0B46FB711346BB717D
:104A7000FB79013B032B0BD801A252F823F000BFB6
:104A8000BD4A0008E94A0008154B0008414B0008E0
:104A9000BB79012B02D00423FB7502E01423FB75C4
:104AA00000BFD7ED027AB2EE097AF4EEC77AF1EEE2
:104AB00010FA00D45AE06F4BBB6057E0BB79012B72
:104AC00002D00323FB7502E01323FB7500BFD7ED73
:104AD000027A9FED697AF4EEC77AF1EE10FA00DC03
:104AE00044E0664BBB6041E0BB79012B02D002235E
:104AF000FB7502E01223FB7500BFD7ED027A9FED34
:104B00005E7AF4EEC77AF1EE10FA00DC2EE05B4B31
:104B1000BB602BE0BB79012B02D00123FB7502E0C7
:104B20001123FB7500BFD7ED027A9FED537AF4EEA7
:104B3000C77AF1EE10FA00DC18E0504BBB6015E0CC
:104B4000BB79012B02D00023FB7502E01023FB751B
:104B500000BFD7ED027A9FED487AF4EEC77AF1EE06
:104B600010FA00DC01E0454BBB6000BFD7ED027AD4
:104B70009FED437AF4EEC77AF1EE10FA01D80123E3
:104B80004DE0D7ED027AB2EE097AF4EEC77AF1EE93
:104B900010FA01D8022342E0D7ED027AB3EE097A87
:104BA000F4EEC77AF1EE10FA01D8032337E0D7ED1F
:104BB000027A9FED347AF4EEC77AF1EE10FA01D85A
:104BC00004232CE0D7ED027A9FED2F7AF4EEC77A1A
:104BD000F1EE10FA01D8052321E0D7ED027A9FED1E
:104BE000267AF4EEC77AF1EE10FA01D8062316E021
:104BF000D7ED027A9FED257AF4EEC77AF1EE10FA3E
:104C000001D807230BE0D7ED027A9FED217AF4EE6D
:104C1000C77AF1EE10FA01D8082300E00923BB752A
:104C2000FB681C33BA7D1146184600F00FFB0346A3
:104C3000002B02D04FF0FF3318E0FB681C33FA7DE5
:104C40001146184600F0F8F90346002B02D04FF049
:104C5000FF330BE0FB68BA68DA62FB68FA7983F825
:104C60003020FB68BA7983F83120002318461837C2
:104C7000BD4680BD00004841000048430000484355
:104C8000CDCCCC3F000048420000C8420000C843E1
:104C90000000484480B485B000AFF86087ED020A98
:104CA0000B46FB711346BB71FB68FA7983F8302021
:104CB000FB68BA7983F83120D7ED027A9FED2F7A1D
:104CC000F4EEC77AF1EE10FA01D82D4B4DE0D7ED96
:104CD000027AB2EE097AF4EEC77AF1EE10FA01D850
:104CE000284B42E0D7ED027AB3EE097AF4EEC77AA8
:104CF000F1EE10FA01D8244B37E0D7ED027A9FEDA0
:104D0000237AF4EEC77AF1EE10FA01D8204B2CE0AA
:104D1000D7ED027A9FED1F7AF4EEC77AF1EE10FA22
:104D200001D81D4B21E0D7ED027A9FED1C7AF4EEFD
:104D3000C77AF1EE10FA01D8194B16E0D7ED027AD6
:104D40009FED187AF4EEC77AF1EE10FA01D8164BFF
:104D50000BE0D7ED027A9FED157AF4EEC77AF1EE0B
:104D600010FA01D8124B00E0124BFA68D36200230C
:104D700018461437BD465DF8047B7047CDCCCC3F58
:104D8000CDCCCC3F000048410000C8410000484263
:104D9000000048420000C8420000C84200004843EA
:104DA000000048430000C8430000C84300004844D6
:104DB000000048440000C84490B587B000AFF860D8
:104DC0007A601A460B46FB7213463B81FB687B6197
:104DD0007B695C697B691B7B98B2FB7A99B23B89E2
:104DE0007A68A047034618461C37BD4690BD90B56B
:104DF00087B000AFF8607A601A460B46FB72134624
:104E00003B81FB687B617B691C697B691B7B98B27A
:104E1000FB7A99B23B897A68A047034618461C374B
:104E2000BD4690BD90B587B000AFF8607A601A4675
:104E30000B46FB7213463B81FB685C68FB68986815
:104E40003B89F97A7A68A04778617B6918461C37F4
:104E5000BD4690BD90B587B000AFF8607A601A4645
:104E60000B46FB7213463B81FB681C68FB68986825
:104E70003B89F97A7A68A04778617B6918461C37C4
:104E8000BD4690BD80B483B000AF0346FB80B7F948
:104E9000063007EE903AF8EEE77A9FED057A67EE76
:104EA000877AB0EE670A0C37BD465DF8047B704721
:104EB00023DB793D80B483B000AF0346FB80B7F9B4
:104EC000063007EE903AF8EEE77A9FED057A67EE46
:104ED000877AB0EE670A0C37BD465DF8047B7047F1
:104EE00023DBF93D80B483B000AF0346FB80B7F904
:104EF000063007EE903AF8EEE77A9FED057A67EE16
:104F0000877AB0EE670A0C37BD465DF8047B7047C0
:104F100023DB793E80B483B000AF0346FB80B7F952
:104F2000063007EE903AF8EEE77A9FED057A67EEE5
:104F3000877AB0EE670A0C37BD465DF8047B704790
:104F400023DBF93E80B483B000AF0346FB80B7F9A2
:104F5000063007EE903AF8EEE77A9FED057A67EEB5
:104F6000877AB0EE670A0C37BD465DF8047B704760
:104F700023DB793D80B483B000AF0346FB80B7F9F3
:104F8000063007EE903AF8EEE77A9FED057A67EE85
:104F9000877AB0EE670A0C37BD465DF8047B704730
:104FA00023DBF93D80B483B000AF0346FB80B7F943
:104FB000063007EE903AF8EEE77A9FED057A67EE55
:104FC000877AB0EE670A0C37BD465DF8047B704700
:104FD00023DB793E80B483B000AF0346FB80B7F992
:104FE000063007EE903AF8EEE77A9FED057A67EE25
:104FF000877AB0EE670A0C37BD465DF8047B7047D0
:1050000023DBF93E80B483B000AF0346FB80B7F9E1
:10501000063007EE903AB8EEE77AF3EE006AC7EE94
:10502000267AB3EE097A77EE877AB0EE670A0C3704
:10503000BD465DF8047B704780B586B000AF7860F0
:105040000B46FB7007F11002012320217868FFF75F
:10505000E9FE78617B69002B19D1FB789B08DBB2F4
:1050600003F00303DAB23B7C62F383033B74FB7807
:1050700003F00303DAB23B7C62F301033B7407F1F4
:105080001002012320217868FFF7E4FE78617B6934
:10509000002B07D107F10C02012325217868FFF7C7
:1050A000C1FE78617B69002B11D1FB781B09DBB253
:1050B00003F00103DAB23B7B62F382033B7307F137
:1050C0000C02012325217868FFF7C4FE78617B6913
:1050D00018461837BD4680BD80B586B000AF7860F1
:1050E000396007F11002012320217868FFF79AFE4A
:1050F00078617B69002B40F0A38007F10C0201234B
:1051000025217868FFF78EFE78613B7BC3F380032F
:10511000DBB21A013B7CC3F38103DBB29B00134477
:105120003A7CC2F30102D2B213441B2B00F28480FA
:1051300001A252F823F000BFC9510008C151000874
:10514000B9510008B1510008A951000839520008AE
:105150003952000839520008E9510008E1510008AD
:10516000D9510008D15100083952000839520008BD
:10517000395200083952000811520008095200083B
:1051800001520008F9510008F15100083952000895
:1051900039520008395200083152000829520008DB
:1051A00021520008195200083B6804221A7047E097
:1051B0003B6803221A7043E03B6802221A703FE00A
:1051C0003B6801221A703BE03B6800221A7037E00E
:1051D0003B680B221A7033E03B680A221A702FE0FA
:1051E0003B6809221A702BE03B6808221A7027E0FE
:1051F0003B6814221A7023E03B6813221A701FE0E8
:105200003B6812221A701BE03B6811221A7017E0EB
:105210003B6810221A7013E03B681B221A700FE0E3
:105220003B681A221A700BE03B6819221A7007E0DB
:105230003B6818221A7003E03B6804221A7000BF12
:105240007B6918461837BD4680BD00BF80B586B063
:1052500000AF78600B46FB7007F11002012320219C
:105260007868FFF7DFFD78617B69002B0FD1FB7851
:1052700003F00F03DAB23B7C62F307133B7407F1D0
:105280001002012320217868FFF7E4FD78617B6933
:10529000002B07D107F10C02012322217868FFF7C8
:1052A000C1FD78617B69002B11D1FB781B09DBB252
:1052B00003F00303DAB23B7B62F301033B7307F1B4
:1052C0000C02012322217868FFF7C4FD78617B6915
:1052D00018461837BD4680BD80B586B000AF7860EF
:1052E000396007F11002012320217868FFF79AFD49
:1052F00078617B69002B40F08D8007F10C0201235F
:1053000022217868FFF78EFD78613B7BC3F30103B0
:10531000DBB21B013A7CC2F30312D2B21344202B3E
:1053200074D801A252F823F0AD530008B553000819
:10533000BD530008C5530008CD530008D5530008DD
:10534000DD530008E5530008ED530008F55300084D
:105350000D5400080D5400080D5400080D540008A9
:105360000D5400080D540008FD5300080D540008AA
:105370000D5400080D5400080D5400080D54000889
:105380000D5400080D5400080D5400080D54000879
:105390000D5400080D5400080D5400080D54000869
:1053A0000D5400080D540008055400083B68002205
:1053B0001A702FE03B6801221A702BE03B68022232
:1053C0001A7027E03B6803221A7023E03B6804222E
:1053D0001A701FE03B6805221A701BE03B6806222A
:1053E0001A7017E03B6807221A7013E03B68082226
:1053F0001A700FE03B6809221A700BE03B6810221C
:105400001A7007E03B6820221A7003E03B68002214
:105410001A7000BF7B6918461837BD4680BD00BFB3
:1054200080B584B000AF78600B46FB7007F10802CE
:10543000012321217868FFF7F5FCF860FB68002B59
:105440000FD1FB7803F00103DAB23B7A62F3C303B6
:105450003B7207F10802012321217868FFF7FAFC6B
:10546000F860FB6818461037BD4680BD80B584B033
:1054700000AF7860396007F10802012321217868C4
:10548000FFF7D0FCF8603B7AC3F3C003DBB21A46E7
:105490003B681A70FB6818461037BD4680BD80B562
:1054A00084B000AF78600B46FB7007F1080201235F
:1054B00025217868FFF7B6FCF860FB68002B0FD158
:1054C000FB7803F00303DAB23B7A62F305133B7215
:1054D00007F10802012325217868FFF7BBFCF8607B
:1054E000FB6818461037BD4680BD000080B584B00B
:1054F00000AF7860396007F1080201232521786840
:10550000FFF790FCF8603B7AC3F30113DBB2032B87
:105510001AD801A252F823F0295500083155000885
:1055200039550008415500083B6800221A700FE009
:105530003B6801221A700BE03B6802221A7007E0F8
:105540003B6803221A7003E03B6800221A7000BF18
:10555000FB6818461037BD4680BD00BF80B584B0DB
:1055600000AF7860396001233A6827217868FFF737
:1055700059FCF860FB6818461037BD4680BD80B501
:1055800084B000AF7860396007F108020123272159
:105590007868FFF747FCF8603B7AC3F30003DBB29F
:1055A0001A463B681A70FB6818461037BD4680BD26
:1055B00080B584B000AF7860396005233A68372140
:1055C0007868FFF72FFCF860FB6818461037BD4677
:1055D00080BD80B584B000AF7860396001233A683F
:1055E0003C217868FFF736FCF860FB6818461037F6
:1055F000BD4680BD80B584B000AF786039600123BE
:105600003A683C217868FFF70DFCF860FB681846A3
:105610001037BD4680BD80B584B000AF786039607A
:1056200001233A683D217868FFF714FCF860FB68B5
:1056300018461037BD4680BD80B584B000AF786095
:10564000396001233A683D217868FFF7EBFBF86089
:10565000FB6818461037BD4680BD80B584B000AFEA
:105660007860396001233A683E217868FFF7F2FBE1
:10567000F860FB6818461037BD4680BD80B584B021
:1056800000AF7860396001233A683E217868FFF7FF
:10569000C9FBF860FB6818461037BD4680BD80B571
:1056A00084B000AF78600B46FB7007F1080201235D
:1056B0003F217868FFF7B6FBF860FB68002B0FD13D
:1056C000FB7803F00103DAB23B7A62F382033B72A8
:1056D00007F1080201233F217868FFF7BBFBF86060
:1056E000FB6818461037BD4680BD80B584B000AF5A
:1056F0007860396007F1080201233F217868FFF7DD
:1057000091FBF8603B7AC3F38003DBB2002B02D03D
:10571000012B04D007E03B6800221A7007E03B68C9
:1057200001221A7003E03B6800221A7000BFFB6878
:1057300018461037BD4680BD80B584B000AF786094
:10574000396002233A680D217868FFF76BFBF86037
:10575000FB6818461037BD4680BD80B584B000AFE9
:105760007860396006233A6828217868FFF75AFB89
:10577000F860FB6818461037BD4680BD80B584B020
:1057800000AF7860396001233A680F217868FFF72D
:1057900049FBF860FB6818461037BD4680BD80B5F0
:1057A00084B000AF78600B46FB7007F1080201235C
:1057B00021217868FFF736FBF860FB68002B0FD1DA
:1057C000FB7803F00103DAB23B7A62F382033B72A7
:1057D00007F10802012321217868FFF73BFBF860FD
:1057E000FB6818461037BD4680BD80B584B000AF59
:1057F0007860396007F10802012321217868FFF7FA
:1058000011FBF8603B7AC3F38003DBB21A463B68B6
:105810001A70FB6818461037BD4680BD80B584B04D
:1058200000AF78600B46FB7007F1080201232121CD
:105830007868FFF7F7FAF860FB68002B0FD1FB7868
:1058400003F00103DAB23B7A62F386133B7207F18D
:105850000802012321217868FFF7FCFAF860FB6851
:1058600018461037BD4680BD80B584B000AF786063
:10587000396007F10802012321217868FFF7D2FA85
:10588000F8603B7AC3F38013DBB21A463B681A70A8
:10589000FB6818461037BD4680BD80B584B000AFA8
:1058A00078600B46FB7007F108020123212178681C
:1058B000FFF7B8FAF860FB68002B0FD1FB7803F014
:1058C0000103DAB23B7A62F3C7133B7207F10802B5
:1058D000012321217868FFF7BDFAF860FB681846BC
:1058E0001037BD4680BD80B584B000AF78603960A8
:1058F00007F10802012321217868FFF793FAF86085
:105900003B7AC3F3C013DBB21A463B681A70FB68DC
:1059100018461037BD4680BD80B584B000AF7860B2
:105920000B46FB7007F10802012322217868FFF77C
:1059300079FAF860FB68002B0FD1FB7803F00303C2
:10594000DAB23B7A62F387133B7207F10802012354
:1059500022217868FFF77EFAF860FB681846103756
:10596000BD4680BD80B584B000AF7860396007F176
:105970000802012322217868FFF754FAF8603B7A85
:10598000C3F38113DBB2012B07D0022B09D0002B0C
:105990000BD13B6800221A700BE03B6801221A70A1
:1059A00007E03B6802221A7003E03B6800221A708D
:1059B00000BFFB6818461037BD4680BD80B584B077
:1059C00000AF78600B46FB7007F1080201233F210E
:1059D0007868FFF727FAF860FB68002B0FD1FB7897
:1059E00003F00103DAB23B7A62F3C7133B7207F1AB
:1059F000080201233F217868FFF72CFAF860FB6862
:105A000018461037BD4680BD80B584B000AF7860C1
:105A1000396007F1080201233F217868FFF702FA95
:105A2000F8603B7AC3F3C013DBB2002B02D0012B2A
:105A300004D007E03B6800221A7007E03B680122AF
:105A40001A7003E03B6800221A7000BFFB6818461A
:105A50001037BD4680BD80B586B000AF78600B467C
:105A6000FB7007F11002012325217868FFF7DAF9AE
:105A700078617B69002B11D1FB781B09DBB203F045
:105A80000103DAB23B7C62F3C3033B7407F11002FB
:105A9000012325217868FFF7DDF978617B69002B08
:105AA00007D107F10C0201233F217868FFF7BAF90B
:105AB00078617B69002B0FD1FB7803F00103DAB228
:105AC0003B7B62F304133B7307F10C0201233F217C
:105AD0007868FFF7BFF978617B6918461837BD46CB
